:100000000C942A000C943C000C943C000C943C0092
:100010000C943C000C943C000C943C000C943C0070
:100020000C943C000C943C000C943D030C943C005C
:100030000C943C000C943C000C943C000C943C0050
:100040000C943C000C943C000C943C000C943C0040
:100050000C943C0011241FBECFE5D8E0DEBFCDBF1D
:1000600010E0A0E6B0E001C01D92A236B107E1F7B2
:100070000E9470030C948D030C940000DF93CF93C7
:10008000CDB7DEB72D970FB6F894DEBF0FBECDBF4C
:1000900089836A834B838981282F30E03D872C87B1
:1000A0008C859D858230910509F454C02C853D8551
:1000B0002330310534F48C859D858130910571F0B4
:1000C000FBC02C853D852330310509F47FC08C852C
:1000D0009D858430910509F4B5C0EEC08B81282F31
:1000E00030E03B872A878A859B8582309105A1F085
:1000F0002A853B8523303105D1F08A859B85813067
:10010000910509F0D9C0AAE3B0E0EAE3F0E09081FC
:100110008A81892B8C93D0C0AAE3B0E0EAE3F0E0B7
:100120008081982F8A81809589238C93C5C0AAE30A
:10013000B0E0EAE3F0E08081982F8A8180958923FE
:100140008C93ABE3B0E0EBE3F0E090818A81892B04
:100150008C93B2C08B81282F30E03987288788851F
:10016000998582309105A1F02885398523303105A4
:10017000D1F0888599858130910509F09DC0A7E36C
:10018000B0E0E7E3F0E090818A81892B8C9394C002
:10019000A7E3B0E0E7E3F0E08081982F8A818095C3
:1001A00089238C9389C0A7E3B0E0E7E3F0E0808186
:1001B000982F8A81809589238C93A8E3B0E0E8E3A7
:1001C000F0E090818A81892B8C9376C08B81282FD7
:1001D00030E03F832E838E819F8182309105A1F094
:1001E0002E813F8123303105D1F08E819F81813076
:1001F000910509F061C0A4E3B0E0E4E3F0E0908190
:100200008A81892B8C9358C0A4E3B0E0E4E3F0E04A
:100210008081982F8A81809589238C934DC0A4E397
:10022000B0E0E4E3F0E08081982F8A818095892313
:100230008C93A5E3B0E0E5E3F0E090818A81892B1F
:100240008C933AC08B81282F30E03D832C838C81A6
:100250009D818230910599F02C813D8123303105BB
:10026000C9F08C819D818130910531F5A1E3B0E029
:10027000E1E3F0E090818A81892B8C931DC0A1E39A
:10028000B0E0E1E3F0E08081982F8A8180958923B6
:100290008C9312C0A1E3B0E0E1E3F0E08081982FFD
:1002A0008A81809589238C93A2E3B0E0E2E3F0E0B9
:1002B00090818A81892B8C932D960FB6F894DEBF9E
:1002C0000FBECDBFCF91DF910895DF93CF93CDB710
:1002D000DEB72D970FB6F894DEBF0FBECDBF898372
:1002E0006A834B838981282F30E03D872C878C855A
:1002F0009D8582309105D9F12C853D8523303105CE
:1003000034F48C859D858130910571F096C02C85E3
:100310003D852330310509F44DC08C859D858430A1
:10032000910509F469C089C08B81282F30E03B8793
:100330002A878A859B85009779F02A853B8521301D
:10034000310509F07AC0ABE3B0E0EBE3F0E0908177
:100350008A81892B8C9371C0ABE3B0E0EBE3F0E0D2
:100360008081982F8A81809589238C9366C08B81A8
:10037000282F30E03987288788859985009779F07C
:10038000288539852130310509F057C0A8E3B0E050
:10039000E8E3F0E090818A81892B8C934EC0A8E33A
:1003A000B0E0E8E3F0E08081982F8A81809589238E
:1003B0008C9343C08B81282F30E03F832E838E8126
:1003C0009F81009771F02E813F8121303105A9F581
:1003D000A5E3B0E0E5E3F0E090818A81892B8C937E
:1003E0002CC0A5E3B0E0E5E3F0E08081982F8A819E
:1003F000809589238C9321C08B81282F30E03D8309
:100400002C838C819D81009771F02C813D8121305E
:10041000310599F4A2E3B0E0E2E3F0E090818A8153
:10042000892B8C930AC0A2E3B0E0E2E3F0E0808184
:10043000982F8A81809589238C932D960FB6F894F6
:10044000DEBF0FBECDBFCF91DF910895DF93CF9375
:1004500000D000D0CDB7DEB789836A838981282F89
:1004600030E03C832B838B819C8182309105F9F0B5
:100470002B813C812330310534F48B819C81813088
:10048000910561F02EC02B813C8123303105C1F0F4
:100490008B819C8184309105E1F023C0ABE3B0E017
:1004A000EBE3F0E090818A81892B8C931AC0A8E35A
:1004B000B0E0E8E3F0E090818A81892B8C9311C051
:1004C000A5E3B0E0E5E3F0E090818A81892B8C938D
:1004D00008C0A2E3B0E0E2E3F0E090818A81892BDA
:1004E0008C930F900F900F900F90CF91DF91089504
:1004F000DF93CF9300D000D00F92CDB7DEB78A83C1
:100500006B8319828A81282F30E03D832C838C8174
:100510009D818230910511F12C813D81233031057F
:1005200034F48C819D818130910561F03AC02C8139
:100530003D8123303105F1F08C819D81843091051E
:1005400029F12FC0E9E3F0E090818B818923882392
:1005500019F081E0898325C0198223C0E6E3F0E029
:1005600090818B818923882319F081E0898319C0C8
:10057000198217C0E3E3F0E090818B8189238823FF
:1005800019F081E089830DC019820BC0E0E3F0E02F
:1005900090818B818923882319F081E0898301C0B0
:1005A000198289810F900F900F900F900F90CF912B
:1005B000DF910895DF93CF93CDB7DEB7AFE5B0E01D
:1005C000EFE5F0E0808180688C93CF91DF91089512
:1005D000DF93CF93CDB7DEB7AFE5B0E0EFE5F0E066
:1005E00080818F778C93CF91DF910895DF93CF93A4
:1005F000CDB7DEB7A3E5B0E0E3E5F0E08081886049
:100600008C93A3E5B0E0E3E5F0E080818F7B8C93F1
:10061000A9E5B0E0E9E5F0E0808182608C93ECE54B
:10062000F0E08DE78083A3E5B0E0E3E5F0E08081D2
:1006300081608C93A3E5B0E0E3E5F0E08081826027
:100640008C93A3E5B0E0E3E5F0E080818B7F8C93B1
:10065000CF91DF910895DF93CF9300D0CDB7DEB770
:100660009A83898389819A81909361008093600045
:100670000F900F90CF91DF9108951F920F920FB6B8
:100680000F9211242F933F934F935F936F937F9318
:100690008F939F93AF93BF93EF93FF93DF93CF938A
:1006A000CDB7DEB78091600090916100009729F08E
:1006B000E0916000F09161000995CF91DF91FF9189
:1006C000EF91BF91AF919F918F917F916F915F91CA
:1006D0004F913F912F910F900FBE0F901F90189543
:1006E000DF93CF93CDB7DEB781E061E041E00E94B8
:1006F0003E000E94F60282E893E00E942B030E94D3
:10070000DA02FFCFDF93CF93CDB7DEB781E061E0B0
:0E0710000E942602CF91DF910895F894FFCF4A
:00000001FF
