:100000000C942A000C9447000C9447000C94470071
:100010000C9447000C9447000C9447000C944E0B32
:100020000C9447000C9447000C9447000C94470034
:100030000C9447000C9447000C9447000C94470024
:100040000C9447000C9447000C9447000C94470014
:100050000C94470011241FBECFE5D8E0DEBFCDBF12
:1000600010E0A0E6B0E0E2E8F4E502C005900D92F1
:10007000A636B107D9F716E0A6E6B0E001C01D929A
:10008000A03BB107E1F70E9440080C943F2A0C9472
:100090000000DF93CF93CDB7DEB72D970FB6F8945E
:1000A000DEBF0FBECDBF89836A834B838981282F32
:1000B00030E03D872C878C859D858230910509F441
:1000C00054C02C853D852330310534F48C859D85C5
:1000D0008130910571F0FBC02C853D8523303105C1
:1000E00009F47FC08C859D858430910509F4B5C0E5
:1000F000EEC08B81282F30E03B872A878A859B853D
:1001000082309105A1F02A853B8523303105D1F05D
:100110008A859B858130910509F0D9C0AAE3B0E0BA
:10012000EAE3F0E090818A81892B8C93D0C0AAE326
:10013000B0E0EAE3F0E08081982F8A8180958923FE
:100140008C93C5C0AAE3B0E0EAE3F0E08081982F89
:100150008A81809589238C93ABE3B0E0EBE3F0E0F8
:1001600090818A81892B8C93B2C08B81282F30E0BB
:10017000398728878885998582309105A1F028855F
:10018000398523303105D1F08885998581309105F5
:1001900009F09DC0A7E3B0E0E7E3F0E090818A8139
:1001A000892B8C9394C0A7E3B0E0E7E3F0E0808173
:1001B000982F8A81809589238C9389C0A7E3B0E02A
:1001C000E7E3F0E08081982F8A81809589238C93E2
:1001D000A8E3B0E0E8E3F0E090818A81892B8C937A
:1001E00076C08B81282F30E03F832E838E819F81C4
:1001F00082309105A1F02E813F8123303105D1F06D
:100200008E819F818130910509F061C0A4E3B0E047
:10021000E4E3F0E090818A81892B8C9358C0A4E3B9
:10022000B0E0E4E3F0E08081982F8A818095892313
:100230008C934DC0A4E3B0E0E4E3F0E08081982F1C
:100240008A81809589238C93A5E3B0E0E5E3F0E013
:1002500090818A81892B8C933AC08B81282F30E042
:100260003D832C838C819D818230910599F02C8176
:100270003D8123303105C9F08C819D81813091050C
:1002800031F5A1E3B0E0E1E3F0E090818A81892BD0
:100290008C931DC0A1E3B0E0E1E3F0E08081982FF2
:1002A0008A81809589238C9312C0A1E3B0E0E1E3B9
:1002B000F0E08081982F8A81809589238C93A2E336
:1002C000B0E0E2E3F0E090818A81892B8C932D9657
:1002D0000FB6F894DEBF0FBECDBFCF91DF9108956A
:1002E000DF93CF93CDB7DEB72D970FB6F894DEBF6F
:1002F0000FBECDBF89836A834B838981282F30E06D
:100300003D872C878C859D8582309105D9F12C8580
:100310003D852330310534F48C859D8581309105F0
:1003200071F096C02C853D852330310509F44DC010
:100330008C859D858430910509F469C089C08B81C5
:10034000282F30E03B872A878A859B85009779F0A4
:100350002A853B852130310509F07AC0ABE3B0E056
:10036000EBE3F0E090818A81892B8C9371C0ABE341
:10037000B0E0EBE3F0E08081982F8A8180958923BB
:100380008C9366C08B81282F30E039872887888539
:100390009985009779F0288539852130310509F054
:1003A00057C0A8E3B0E0E8E3F0E090818A81892BB0
:1003B0008C934EC0A8E3B0E0E8E3F0E08081982F92
:1003C0008A81809589238C9343C08B81282F30E0CC
:1003D0003F832E838E819F81009771F02E813F8114
:1003E00021303105A9F5A5E3B0E0E5E3F0E0908127
:1003F0008A81892B8C932CC0A5E3B0E0E5E3F0E083
:100400008081982F8A81809589238C9321C08B814C
:10041000282F30E03D832C838C819D81009771F0E3
:100420002C813D812130310599F4A2E3B0E0E2E373
:10043000F0E090818A81892B8C930AC0A2E3B0E01E
:10044000E2E3F0E08081982F8A81809589238C9364
:100450002D960FB6F894DEBF0FBECDBFCF91DF91C2
:100460000895DF93CF9300D000D0CDB7DEB7898356
:100470006A838981282F30E03C832B838B819C8188
:1004800082309105F9F02B813C812330310534F421
:100490008B819C818130910561F02EC02B813C8144
:1004A00023303105C1F08B819C8184309105E1F0CE
:1004B00023C0ABE3B0E0EBE3F0E090818A81892BCD
:1004C0008C931AC0A8E3B0E0E8E3F0E090818A8161
:1004D000892B8C9311C0A5E3B0E0E5E3F0E09081B7
:1004E0008A81892B8C9308C0A2E3B0E0E2E3F0E0BC
:1004F00090818A81892B8C930F900F900F900F9091
:10050000CF91DF910895DF93CF9300D000D00F9269
:10051000CDB7DEB78A836B8319828A81282F30E0BA
:100520003D832C838C819D818230910511F12C813A
:100530003D812330310534F48C819D8181309105DA
:1005400061F03AC02C813D8123303105F1F08C817E
:100550009D818430910529F12FC0E9E3F0E090817D
:100560008B818923882319F081E0898325C0198232
:1005700023C0E6E3F0E090818B818923882319F082
:1005800081E0898319C0198217C0E3E3F0E090810C
:100590008B818923882319F081E089830DC019821A
:1005A0000BC0E0E3F0E090818B818923882319F070
:1005B00081E0898301C0198289810F900F900F908B
:1005C0000F900F90CF91DF910895DF93CF9300D0DC
:1005D000CDB7DEB78BE090E00E942A069A8389832C
:1005E00089819A81009749F0E981FA81118210820C
:1005F00089819A8102960E94A60689819A810F902C
:100600000F90CF91DF910895DF93CF93CDB7DEB7F1
:1006100060970FB6F894DEBF0FBECDBF9A8789876B
:100620007C876B875E874D87388B2F8789859A8576
:100630009C838B8319820E94441FEB81FC81808103
:10064000918198878F8389859A852B853C85B9010F
:100650000E94DB042F8138858B859C85282B392BC4
:100660008D859E85282339238D859E8528173907FA
:10067000C9F42F8138858B859C85822B932B9E8393
:100680008D83EB81FC81208131818D859E858095D4
:10069000909582239323EB81FC8191838083188A38
:1006A0001F861EC08F859889009791F08B819C8151
:1006B000BC016E5F7F4F8D859E859C0135604F85A7
:1006C0005889CB01B9010E94B4211E821D8208C045
:1006D000EB81FC81808191819E838D8381E0898380
:1006E0000E94501F8A838F859889009709F43AC029
:1006F0008A81882311F40E943C0A0E94CC259E83A3
:100700008D838D819E8180709270009731F50FB638
:10071000F8940F92EB81FC81808191819E838D837F
:100720002D813E818D859E85282339238D859E854B
:100730002817390771F4EB81FC81208131818D8587
:100740009E858095909582239323EB81FC819183F4
:1007500080830F900FBE81E089838D819E81907090
:100760009E838D838D819E8160960FB6F894DEBF47
:100770000FBECDBFCF91DF9108950F931F93DF93ED
:10078000CF93CDB7DEB763970FB6F894DEBF0FBE39
:10079000CDBF9D878C877F876E87488B298B1B8B6E
:1007A0000A8B8C859D859B878A871F821E821B8270
:1007B0000E94441FEA85FB85808191819A83898309
:1007C00089819A812E853F85B90149890E94F80562
:1007D0008D838D818823C1F089819A81998788874B
:1007E0001B8A1A8A88898823E9F1EA85FB8520819A
:1007F00031818E859F858095909582239323EA850C
:10080000FB85918380832EC08A899B89009739F468
:1008100089819A819987888781E08B8323C0888921
:10082000882329F08E819F8191609F838E8389899F
:10083000882329F08E819F8194609F838E838A858F
:100840009B85BC016E5F7F4F2E853F858E819F818A
:10085000282B392B4A895B89CB01B9010E94B4212D
:10086000198618860E94501F8C838A899B8900975D
:1008700009F43CC08C81882311F40E943C0A0E9438
:10088000CC25998788878885998580709270009794
:1008900041F50FB6F8940F92EA85FB85808191812E
:1008A00099878887888599852E853F85B9014989EB
:1008B0000E94F805882389F08889882371F0EA85E9
:1008C000FB85208131818E859F858095909582233F
:1008D0009323EA85FB859183808381E08B830F904E
:1008E0000FBE8885998590709987888788859985B6
:1008F00063960FB6F894DEBF0FBECDBFCF91DF91E8
:100900001F910F910895DF93CF93CDB7DEB728974E
:100910000FB6F894DEBF0FBECDBF9E838D83788760
:100920006F838D819E819C838B830FB6F8940F9289
:10093000EB81FC81808191819A838983EB81FC81A9
:10094000208131818F819885809590958223932392
:10095000EB81FC81918380830F900FBE89819A8106
:1009600028960FB6F894DEBF0FBECDBFCF91DF91B2
:100970000895DF93CF93CDB7DEB727970FB6F894DE
:10098000DEBF0FBECDBF9F838E838E819F819C83F0
:100990008B831D82EB81FC81808191819A83898385
:1009A00089819A8127960FB6F894DEBF0FBECDBF1E
:1009B000CF91DF910895DF93CF93CDB7DEB76597E1
:1009C0000FB6F894DEBF0FBECDBF9B8B8A8B7D8B9D
:1009D0006C8B198618868A899B899B838A831982E6
:1009E0008A819B8102969B878A878A859B8503964D
:1009F0009D878C870E94441FEA85FB8585819681AF
:100A0000998B888BEA81FB81208131818C899D893A
:100A1000822B932BEA81FB819183808359C0E889E3
:100A2000F989828193819F878E87E889F9898081FE
:100A300091819F838E8319828E819F8180709D8397
:100A40008C838E819F8190709F838E838C819D810A
:100A500080709470009769F4EA81FB812081318174
:100A60008E819F8182239323009791F081E0898377
:100A70000FC0EA81FB81208131818E819F812823F3
:100A800039238E819F812817390711F481E08983EA
:100A900089818823C9F08C819D8180709170009735
:100AA00041F0888599852E813F81822B932B9987F0
:100AB0008887EA81FB81808191819C0132608889ED
:100AC0009989B9010E944F228E859F85998B888BC9
:100AD000288939898C859D852817390709F09FCF8A
:100AE000EA81FB8120813181888599858095909567
:100AF00082239323EA81FB81918380830E94501F8C
:100B0000EA81FB818081918165960FB6F894DEBF02
:100B10000FBECDBFCF91DF910895DF93CF9300D06B
:100B200000D000D0CDB7DEB79E838D838D819E81AE
:100B30009C838B838B819C8102969A8389830E94FC
:100B4000441F08C0E981FA818581968160E072E0E6
:100B50000E944F22E981FA818081882399F78B8155
:100B60009C810E9480060E94501F26960FB6F89422
:100B7000DEBF0FBECDBFCF91DF910895DF93CF933E
:100B800000D000D000D0CDB7DEB79A8389834B83E5
:100B90005C836D837E8389819A812B813C81B9013D
:100BA0000E94DB0426960FB6F894DEBF0FBECDBFC1
:100BB000CF91DF910895DF93CF9300D000D000D084
:100BC000CDB7DEB79A8389834B835C836D837E8345
:100BD00089819A812B813C81B9010E9483042696E8
:100BE0000FB6F894DEBF0FBECDBFCF91DF91089551
:100BF000DF93CF9300D000D000D0CDB7DEB79B837A
:100C00008A837D836C834E8319828E81882359F475
:100C10008A819B812C813D8182239323009781F0DF
:100C200081E089830DC02A813B818C819D812823AD
:100C300039238C819D812817390711F481E089833C
:100C4000898126960FB6F894DEBF0FBECDBFCF9137
:100C5000DF910895DF93CF9300D000D0CDB7DEB7FA
:100C60009C838B831A8219820E94441F80916800A2
:100C700090916900009731F48BE690E090936900C1
:100C80008093680080916600909167002B813C8181
:100C9000820F931F25E08B3D920738F52091660067
:100CA000309167008B819C81280F391F80916600ED
:100CB0009091670082179307C0F4209168003091EB
:100CC00069008091660090916700820F931F9A835C
:100CD000898320916600309167008B819C81820F0F
:100CE000931F90936700809366000E94501F898134
:100CF0009A810F900F900F900F90CF91DF910895F0
:100D0000DF93CF9300D0CDB7DEB79A8389830F905E
:100D10000F90CF91DF910895DF93CF93CDB7DEB7DA
:100D20001092670010926600CF91DF910895DF93D3
:100D3000CF93CDB7DEB720916600309167008BED81
:100D400095E0821B930BCF91DF910895DF93CF93B2
:100D500000D0CDB7DEB79A83898389819A810396C3
:100D6000E981FA8192838183E981FA818FEF9FEF94
:100D70009483838389819A810396E981FA8196839A
:100D8000858389819A810396E981FA819087878397
:100D9000E981FA8110820F900F90CF91DF91089531
:100DA000DF93CF9300D0CDB7DEB79A838983E981F3
:100DB000FA81118610860F900F90CF91DF910895E0
:100DC000DF93CF9300D000D000D0CDB7DEB79C83A7
:100DD0008B837E836D83EB81FC81818192819A83F9
:100DE0008983ED81FE8189819A8193838283E98160
:100DF000FA8184819581ED81FE8195838483E981E7
:100E0000FA810480F581E02D8D819E819383828318
:100E1000E981FA818D819E8195838483ED81FE81B4
:100E20008B819C8191878087EB81FC8180818F5FA2
:100E3000EB81FC81808326960FB6F894DEBF0FBE4F
:100E4000CDBFCF91DF910895DF93CF93CDB7DEB7BC
:100E500028970FB6F894DEBF0FBECDBF9E838D835B
:100E600078876F83EF81F885808191819A83898368
:100E700089819A812FEF8F3F920739F4ED81FE81AE
:100E8000878190859C838B8318C08D819E8103967A
:100E90009C838B8306C0EB81FC81828193819C8340
:100EA0008B83EB81FC810280F381E02D20813181F5
:100EB00089819A818217930770F7EB81FC81828187
:100EC0009381EF81F88593838283EF81F885028097
:100ED000F381E02D8F81988595838483EF81F88558
:100EE0008B819C8195838483EB81FC818F819885A4
:100EF00093838283EF81F8858D819E81918780879E
:100F0000ED81FE8180818F5FED81FE818083289657
:100F10000FB6F894DEBF0FBECDBFCF91DF9108951D
:100F2000DF93CF9300D000D0CDB7DEB79C838B8307
:100F3000EB81FC81808591859A838983EB81FC819B
:100F4000A281B381EB81FC818481958115969C936C
:100F50008E931497EB81FC81A481B581EB81FC8198
:100F60008281938113969C938E931297E981FA81E3
:100F7000218132818B819C812817390741F4EB81D3
:100F8000FC8184819581E981FA8192838183EB815F
:100F9000FC8111861086E981FA8180818150E98186
:100FA000FA818083E981FA8180810F900F900F9000
:100FB0000F90CF91DF910895DF93CF9300D00F92E0
:100FC000CDB7DEB79B838A8319828091AE0690915C
:100FD000AF0660E070E00E94480F8983898181300C
:100FE000C1F49091460681E089278093460690914E
:100FF000460681E061E0492F0E9470018091AE06B3
:101000009091AF0660E070E040E050E020E00E9488
:10101000480D88EE93E00E94771DD7CFDF93CF93E2
:1010200000D00F92CDB7DEB79B838A83198280915F
:10103000AE069091AF0660E070E00E94480F898391
:1010400089818130C1F49091470681E0892780939E
:1010500047069091470681E062E0492F0E947001A7
:101060008091AE069091AF0660E070E040E050E005
:1010700020E00E94480D84EF91E00E94771DD7CFB9
:10108000EF92FF920F93DF93CF93CDB7DEB781E05E
:1010900061E041E00E94490081E062E041E00E949D
:1010A000490081E061E00E94280D9093AF06809393
:1010B000AE068CED97E060E070E048EC50E020E098
:1010C00030E001E0EE24FF240E94521B8EE098E005
:1010D00060E070E048EC50E020E030E002E0EE2418
:1010E000FF240E94521B0E94061F80E090E0CF91D7
:1010F000DF910F91FF90EF900895DF93CF93CDB7DD
:10110000DEB728970FB6F894DEBF0FBECDBF9C8325
:101110008B837E836D8358874F83EB81FC8181E1D4
:1011200080838B819C8101979C838B83EB81FC81E5
:1011300082E280838B819C8101979C838B83EB81EE
:10114000FC8183E380838B819C8101979C838B83CB
:101150008D819E819A8389838981EB81FC81808343
:101160008B819C8101979C838B8389819A81892FB4
:1011700099279A8389838981EB81FC8180838B8184
:101180009C8101979C838B83EB81FC8110828B81F6
:101190009C8101979C838B83EB81FC8180E8808319
:1011A0008B819C8101979C838B83EB81FC811082D6
:1011B0008B819C8101979C838B83EB81FC8182E0F6
:1011C00080838B819C8101979C838B83EB81FC8145
:1011D00083E080838B819C8101979C838B83EB814F
:1011E000FC8184E080838B819C8101979C838B832D
:1011F000EB81FC8185E080838B819C8101979C83BE
:101200008B83EB81FC8186E080838B819C810197BD
:101210009C838B83EB81FC8187E080838B819C8125
:1012200001979C838B83EB81FC8188E080838B8199
:101230009C8101979C838B83EB81FC8189E0808377
:101240008B819C8101979C838B83EB81FC8180E166
:1012500080838B819C8101979C838B83EB81FC81B4
:1012600081E180838B819C8101979C838B83EB81BF
:10127000FC8182E180838B819C8101979C838B839D
:10128000EB81FC8183E180838B819C8101979C832E
:101290008B83EB81FC8184E180838B819C8101972E
:1012A0009C838B83EB81FC8185E180838B819C8196
:1012B00001979C838B83EB81FC8186E180838B810A
:1012C0009C8101979C838B83EB81FC8187E18083E8
:1012D0008B819C8101979C838B83EB81FC8188E1CE
:1012E00080838B819C8101979C838B83EB81FC8124
:1012F00089E180838B819C8101979C838B83EB8127
:10130000FC8180E280838B819C8101979C838B830D
:10131000EB81FC8181E280838B819C8101979C839E
:101320008B83EB81FC8182E280838B819C8101979E
:101330009C838B83EB81FC8183E280838B819C8106
:1013400001979C838B838F8198859A838983898178
:10135000EB81FC8180838B819C8101979C838B83B3
:1013600089819A81892F99279A8389838981EB8141
:10137000FC8180838B819C8101979C838B83EB8193
:10138000FC8186E280838B819C8101979C838B8387
:10139000EB81FC8187E280838B819C8101979C8318
:1013A0008B83EB81FC8188E280838B819C81019718
:1013B0009C838B83EB81FC8189E280838B819C8180
:1013C00001979C838B83EB81FC8180E380838B81FD
:1013D0009C8101979C838B83EB81FC8181E38083DB
:1013E0008B819C8101979C838B838B819C81289628
:1013F0000FB6F894DEBF0FBECDBFCF91DF91089539
:10140000DF93CF93CDB7DEB70E94F20AA0914806D2
:10141000B0914906CD91CDBFDD91DEBFFF91EF9137
:10142000DF91CF91BF91AF919F918F917F916F91FC
:101430005F914F913F912F911F910F91FF90EF90EE
:10144000DF90CF90BF90AF909F908F907F906F90E4
:101450005F904F903F902F901F900F900FBE0F9076
:10146000089581E0CF91DF910895DF93CF93CDB7B9
:10147000DEB7CF91DF9108950F920FB6F8940F92D7
:101480001F9211242F923F924F925F926F927F9200
:101490008F929F92AF92BF92CF92DF92EF92FF9284
:1014A0000F931F932F933F934F935F936F937F936C
:1014B0008F939F93AF93BF93CF93DF93EF93FF935C
:1014C000A0914806B09149060DB60D920EB60D9248
:1014D0000E942521A0914806B0914906CD91CDBF2B
:1014E000DD91DEBFFF91EF91DF91CF91BF91AF9181
:1014F0009F918F917F916F915F914F913F912F912C
:101500001F910F91FF90EF90DF90CF90BF90AF9021
:101510009F908F907F906F905F904F903F902F9013
:101520001F900F900FBE0F9008950F920FB6F89472
:101530000F921F9211242F923F924F925F926F92BF
:101540007F928F929F92AF92BF92CF92DF92EF9253
:10155000FF920F931F932F933F934F935F936F933C
:101560007F938F939F93AF93BF93CF93DF93EF932B
:10157000FF93A0914806B09149060DB60D920EB6A4
:101580000D920E944020882311F00E942521A091F5
:101590004806B0914906CD91CDBFDD91DEBFFF91E8
:1015A000EF91DF91CF91BF91AF919F918F917F91FB
:1015B0006F915F914F913F912F911F910F91FF90EC
:1015C000EF90DF90CF90BF90AF909F908F907F90E3
:1015D0006F905F904F903F902F901F900F900FBE95
:1015E0000F900895DF93CF9300D000D000D0CDB7F7
:1015F000DEB780E49FE1A0E0B0E08B839C83AD8305
:10160000BE838B819C81AD81BE81689415F8B695AF
:10161000A795979587951694D1F78B839C83AD8377
:10162000BE838B819C81AD81BE810197A109B109E7
:101630008B839C83AD83BE838B8189838B819C81CB
:10164000AD81BE81892F9A2FAB2FBB278B839C83C3
:10165000AD83BE838B818A83EBE4F0E08A81808353
:10166000EAE4F0E0898180838BE08983EEE4F0E0B6
:1016700089818083E9E5F0E08081898389818061C7
:101680008983E9E5F0E08981808326960FB6F89496
:10169000DEBF0FBECDBFCF91DF9108950E94950AA6
:1016A0001895DF93CF9300D000D00F92CDB7DEB75F
:1016B0009C838B836D838B819C819A8389830FB6F6
:1016C000F8940F92E981FA8140815181E981FA8190
:1016D000838D282F30E0E981FA81848D882F90E076
:1016E000BC01269FC001279F900D369F900D1124AD
:1016F000840F951FE981FA8195838483E981FA81BA
:10170000128EE981FA8180819181E981FA81938346
:101710008283E981FA8140815181E981FA81838D57
:10172000882F90E09C0121503040E981FA81848D1E
:10173000882F90E0BC01269FC001279F900D369F07
:10174000900D1124840F951FE981FA819783868378
:10175000E981FA818FEF858FE981FA818FEF868F9A
:101760008D81882379F4E981FA8180858823A1F02D
:1017700089819A8108960E94E421882369F00E9459
:101780003C0A0AC089819A8108960E94A60689812E
:101790009A8141960E94A6060F900FBE81E00F909D
:1017A0000F900F900F900F90CF91DF9108950F93AE
:1017B0001F93DF93CF93CDB7DEB729970FB6F89479
:1017C000DEBF0FBECDBF8F8368874987888588239A
:1017D00019F41C821B8210C08F81282F30E088856D
:1017E000882F90E0AC01249FC001259F900D349F6D
:1017F000900D11249C838B838B819C814F960E943A
:101800002A069E838D838D819E810097A1F08D8114
:101810009E819A83898389819A814F969A8389834D
:1018200029813A81ED81FE818F816885A901298511
:101830008F010E94280C8D819E8129960FB6F89405
:10184000DEBF0FBECDBFCF91DF911F910F910895E5
:101850000F931F93DF93CF93CDB7DEB727970FB6C4
:10186000F894DEBF0FBECDBF89836A835C834B8350
:101870002D831F830E838A81882339F48E819F8173
:10188000EE81FF819183808306C08B819C81EE81F4
:10189000FF8191838083EE81FF818981838FEE8137
:1018A000FF818A81848F8E819F8161E00E94510B2C
:1018B00027960FB6F894DEBF0FBECDBFCF91DF9154
:1018C0001F910F910895DF93CF9300D0CDB7DEB76E
:1018D0009A83898389819A810097A1F0E981FA81AD
:1018E00015821482E981FA8111821082E981FA81DC
:1018F000168289819A8160E070E040E050E020E04B
:101900000E94480D0F900F90CF91DF910895DF93C3
:10191000CF9300D000D00F92CDB7DEB78D8381E09A
:101920008A8319828A8169814D810E94D70B9C83A9
:101930008B838B819C810E94630C8B819C810F9097
:101940000F900F900F900F90CF91DF9108950F930C
:101950001F93DF93CF9300D000D00F92CDB7DEB7A7
:101960009D838C838C819D819A838983E981FA810F
:10197000048115810E94152408171907C1F4E98113
:10198000FA8186818150E981FA818683E981FA8131
:101990008681882349F489819A8160E070E040E083
:1019A00050E020E00E94480D81E08B8301C01B8243
:1019B0008B810F900F900F900F900F90CF91DF9130
:1019C0001F910F9108950F931F93DF93CF93CDB77E
:1019D000DEB727970FB6F894DEBF0FBECDBF9D834D
:1019E0008C837F836E838C819D819A838983E98137
:1019F000FA81048115810E9415240817190751F4F2
:101A0000E981FA8186818F5FE981FA81868381E0AD
:101A10008B8312C089819A812E813F81B9010E94F6
:101A2000480F8B838B81882339F0E981FA81868185
:101A30008F5FE981FA8186838B8127960FB6F894B0
:101A4000DEBF0FBECDBFCF91DF911F910F910895E3
:101A5000DF93CF9300D000D0CDB7DEB78B836C83FC
:101A60008B8160E042E00E94D70B9A838983898151
:101A70009A81009721F0E981FA818C81828F898196
:101A80009A810F900F900F900F90CF91DF91089552
:101A9000DF93CF93CDB7DEB72F970FB6F894DEBFA5
:101AA0000FBECDBF998788877B876A875D874C8704
:101AB0002E871C82888599859A8389830FB6F8942E
:101AC0000F92E981FA81928DE981FA81838D9817CD
:101AD00018F08E85823011F589819A812A853B859F
:101AE000B9014E850E94EE118B83E981FA818189CB
:101AF000882351F089819A8141960E94E4218823AC
:101B000041F00E943C0A05C08B81882311F00E949D
:101B10003C0A0F900FBE81E08F875CC08C859D854D
:101B2000009721F40F900FBE1F8654C08C8188232C
:101B300031F4CE0105960E94CA2281E08C830F9079
:101B40000FBE0E94441F0FB6F8940F92E981FA81EC
:101B5000858D8F3F19F4E981FA81158EE981FA812B
:101B6000868D8F3F19F4E981FA81168E0F900FBE92
:101B7000CE0105969E01245F3F4FB9010E94E322EA
:101B8000882309F589819A810E947C138823A1F01A
:101B900089819A8108962C853D85B9010E94922100
:101BA00089819A810E94ED120E94501F882309F0BA
:101BB00085CF0E943C0A82CF89819A810E94ED12D2
:101BC0000E94501F7BCF89819A810E94ED120E9452
:101BD000501F1F868F852F960FB6F894DEBF0FBE5D
:101BE000CDBFCF91DF910895DF93CF93CDB7DEB70F
:101BF0002C970FB6F894DEBF0FBECDBF9F838E83A8
:101C0000798768875B874A872C878E819F819B8332
:101C10008A831C82EA81FB81928DEA81FB81838D1C
:101C2000981718F08C85823061F5EA81FB81868DEA
:101C300089838A819B8128853985B9014C850E94D9
:101C4000EE1189818F3FA9F4EA81FB818189882384
:101C5000A9F08A819B8141960E94E421882371F03A
:101C60008A859B85009751F0EA85FB8581E080831A
:101C700005C089818F5FEA81FB81868F81E08D833A
:101C800001C01D828D812C960FB6F894DEBF0FBE69
:101C9000CDBFCF91DF910895DF93CF93CDB7DEB75E
:101CA0002A970FB6F894DEBF0FBECDBF98878F83FB
:101CB0007A8769878F8198859C838B831D82EB81CE
:101CC000FC81828D8A83EB81FC81938D8A818917C7
:101CD00048F5EB81FC81868D89838A818F5FEB815A
:101CE000FC81828F89818F3FA9F4EB81FC818189FE
:101CF0008823A9F08B819C8141960E94E42188234E
:101D000071F089859A85009751F0E985FA8581E01F
:101D1000808305C089818F5FEB81FC81868F81E0A4
:101D20008E8301C01E828E812A960FB6F894DEBF84
:101D30000FBECDBFCF91DF910895DF93CF93CDB785
:101D4000DEB72E970FB6F894DEBF0FBECDBF9987D2
:101D500088877B876A875D874C871C828885998501
:101D60009B838A830FB6F8940F92EA81FB81828D60
:101D7000898389818823F9F08A819B812A853B8523
:101D8000B9010E94A61289818150EA81FB81828F6C
:101D9000EA81FB818085882349F08A819B810896AE
:101DA0000E94E421882311F00E943C0A0F900FBE8C
:101DB00081E08E8763C08C859D85009721F40F900C
:101DC0000FBE1E865BC08C81882331F4CE01059640
:101DD0000E94CA2281E08C830F900FBE0E94441F94
:101DE0000FB6F8940F92EA81FB81858D8F3F19F42D
:101DF000EA81FB81158EEA81FB81868D8F3F19F484
:101E0000EA81FB81168E0F900FBECE0105969E01D2
:101E1000245F3F4FB9010E94E322882309F58A819C
:101E20009B810E9440138823A1F08A819B81419667
:101E30002C853D85B9010E9492218A819B810E9457
:101E4000ED120E94501F882309F08CCF0E943C0A9B
:101E500089CF8A819B810E94ED120E94501F82CF00
:101E60008A819B810E94ED120E94501F8A819B8172
:101E70000E944013882309F475CF1E868E852E9606
:101E80000FB6F894DEBF0FBECDBFCF91DF9108959E
:101E9000DF93CF93CDB7DEB72E970FB6F894DEBFA2
:101EA0000FBECDBF9B878A877D876C871E828A8500
:101EB0009B859D838C831B820FB6F8940F92EC81D7
:101EC000FD81828D8A838A81882321F18A818150D4
:101ED000EC81FD81828FEC81FD8180819181009771
:101EE00031F40E94F325EC81FD8195838483EC819C
:101EF000FD818085882349F08C819D8108960E9410
:101F0000E421882311F00E943C0A0F900FBE81E06B
:101F10008E8789C08C859D85009721F40F900FBE18
:101F20001E8681C08E81882331F4CE0107960E94DF
:101F3000CA2281E08E830F900FBE0E94441F0FB60D
:101F4000F8940F92EC81FD81858D8F3F19F4EC811F
:101F5000FD81158EEC81FD81868D8F3F19F4EC811A
:101F6000FD81168E0F900FBECE0107969E01245F55
:101F70003F4FB9010E94E322882399F58C819D810E
:101F80000E944013882331F1EC81FD818081918191
:101F9000009761F40FB6F8940F92EC81FD81848173
:101FA00095810E9427248B830F900FBE8C819D8189
:101FB00041962C853D85B9010E9492218C819D819D
:101FC0000E94ED120E94501F882309F075CF0E94D5
:101FD0003C0A72CF8C819D810E94ED120E94501F9D
:101FE0006BCF8C819D810E94ED120E94501F8C81CD
:101FF0009D810E944013882309F45ECF8B81882342
:1020000089F00FB6F8940F928C819D810E94CD11BA
:102010008983EC81FD818481958169810E943725C6
:102020000F900FBE1E868E852E960FB6F894DEBFDB
:102030000FBECDBFCF91DF910895DF93CF93CDB782
:10204000DEB760970FB6F894DEBF0FBECDBF9B879B
:102050008A877D876C875F874E871E828A859B85EE
:102060009B838A830FB6F8940F92EA81FB81828D5D
:1020700089838981882331F1EA81FB818681978177
:102080009D838C838A819B812C853D85B9010E942B
:10209000A612EA81FB818C819D8197838683EA81E8
:1020A000FB818189882349F08A819B8141960E9426
:1020B000E421882311F00E943C0A0F900FBE81E0BA
:1020C000888B63C08E859F85009721F40F900FBE8B
:1020D000188A5BC08E81882331F4CE0107960E9456
:1020E000CA2281E08E830F900FBE0E94441F0FB65C
:1020F000F8940F92EA81FB81858D8F3F19F4EA8174
:10210000FB81158EEA81FB81868D8F3F19F4EA8170
:10211000FB81168E0F900FBECE0107969E01225FA7
:102120003F4FB9010E94E322882309F58A819B81F0
:102130000E9440138823A1F08A819B8141962E85BD
:102140003F85B9010E9492218A819B810E94ED12F4
:102150000E94501F882309F085CF0E943C0A82CF3D
:102160008A819B810E94ED120E94501F7BCF8A8141
:102170009B810E94ED120E94501F8A819B810E94C8
:102180004013882309F46ECF188A888960960FB6A9
:10219000F894DEBF0FBECDBFCF91DF910895DF93DE
:1021A000CF93CDB7DEB72C970FB6F894DEBF0FBE36
:1021B000CDBF98878F837A8769875C874B878F81AC
:1021C00098859C838B831D82EB81FC81828D8A8321
:1021D0008A81882381F1EB81FC81858D89838B81C4
:1021E0009C8129853A85B9010E94A6128A81815075
:1021F000EB81FC81828F89818F3FA9F4EB81FC8187
:1022000080858823A9F08B819C8108960E94E42117
:10221000882371F08B859C85009751F0EB85FC85B8
:1022200081E0808305C089818F5FEB81FC81858F90
:1022300081E08E8301C01E828E812C960FB6F894A9
:10224000DEBF0FBECDBFCF91DF910895DF93CF9357
:10225000CDB7DEB72A970FB6F894DEBF0FBECDBF5D
:1022600098878F837A8769878F8198859A838983F6
:102270001D82E981FA81828D8823B1F0E981FA819A
:10228000868197819C838B8389819A8129853A8570
:10229000B9010E94A612E981FA818B819C81978302
:1022A000868381E08E8301C01E828E812A960FB6BE
:1022B000F894DEBF0FBECDBFCF91DF910895DF93BD
:1022C000CF9300D00F92CDB7DEB79B838A830FB632
:1022D000F8940F92EA81FB81828D89830F900FBE63
:1022E00089810F900F900F90CF91DF910895DF9328
:1022F000CF9300D000D00F92CDB7DEB79D838C83F3
:102300008C819D819A8389830FB6F8940F92E9811D
:10231000FA81938DE981FA81828D292F281B822FE2
:102320008B830F900FBE8B810F900F900F900F90AB
:102330000F90CF91DF910895DF93CF9300D000D01D
:102340000F92CDB7DEB79D838C838C819D819A835C
:102350008983E981FA81828D8B838B810F900F9025
:102360000F900F900F90CF91DF910895DF93CF934F
:1023700000D000D0CDB7DEB79C838B838B819C814E
:102380009A83898389819A810E9480060F900F9099
:102390000F900F90CF91DF910895DF93CF9300D0EE
:1023A0000F92CDB7DEB79B838A83EA81FB81818957
:1023B000882361F0EA81FB810688F789E02D80811E
:1023C0009181982F84E0891B898301C019828981BA
:1023D0000F900F900F90CF91DF910895DF93CF93DF
:1023E000CDB7DEB727970FB6F894DEBF0FBECDBFCF
:1023F0009C838B837E836D834F831A82EB81FC8168
:10240000828D8983EB81FC81848D882399F4EB8113
:10241000FC8180819181009709F089C0EB81FC816A
:10242000848195810E94C5248A83EB81FC81158279
:1024300014827DC08F81882399F5EB81FC816281B4
:102440007381EB81FC81848D482F50E02D813E818A
:10245000CB01B9010E942F2AEB81FC8122813381BB
:10246000EB81FC81848D882F90E0820F931FEB819C
:10247000FC8193838283EB81FC8122813381EB8118
:10248000FC81848195812817390708F450C0EB81BD
:10249000FC8180819181EB81FC819383828347C0A1
:1024A000EB81FC8166817781EB81FC81848D482FF3
:1024B00050E02D813E81CB01B9010E942F2AEB8192
:1024C000FC8126813781EB81FC81848D882F90E00F
:1024D000909581959F4F820F931FEB81FC8197838D
:1024E0008683EB81FC8126813781EB81FC818081B1
:1024F00091812817390790F4EB81FC812481358183
:10250000EB81FC81848D882F90E0909581959F4F81
:10251000820F931FEB81FC81978386838F818230AA
:1025200031F48981882319F08981815089838981D7
:102530008F5FEB81FC81828F8A8127960FB6F8949A
:10254000DEBF0FBECDBFCF91DF910895DF93CF9354
:1025500000D000D0CDB7DEB79A8389837C836B83AC
:10256000E981FA81848D882389F1E981FA812681C4
:102570003781E981FA81848D882F90E0820F931F43
:10258000E981FA8197838683E981FA8126813781FF
:10259000E981FA81848195812817390740F0E98122
:1025A000FA8180819181E981FA8197838683E9812B
:1025B000FA8146815781E981FA81848D282F30E0A4
:1025C0008B819C81BA01A9010E942F2A0F900F9044
:1025D0000F900F90CF91DF910895DF93CF9300D0AC
:1025E00000D0CDB7DEB79C838B830FB6F8940F92E3
:1025F000EB81FC81868D8A8311C0EB81FC8181890E
:10260000882379F08B819C8141960E94E421882364
:1026100011F00E9450238A8181508A838A81181682
:1026200064F3EB81FC818FEF868F0F900FBE0FB6A6
:10263000F8940F92EB81FC81858D898311C0EB8129
:10264000FC818085882379F08B819C8108960E948B
:10265000E421882311F00E945023898181508983CD
:102660008981181664F3EB81FC818FEF858F0F90C1
:102670000FBE0F900F900F900F90CF91DF910895A4
:10268000DF93CF9300D00F92CDB7DEB79B838A83C1
:102690000FB6F8940F92EA81FB81828D882319F49A
:1026A00081E0898301C019820F900FBE89810F904C
:1026B0000F900F90CF91DF910895DF93CF9300D0CB
:1026C00000D00F92CDB7DEB79D838C838C819D8126
:1026D0009A838983E981FA81828D882319F481E0C4
:1026E0008B8301C01B828B810F900F900F900F90F6
:1026F0000F90CF91DF910895DF93CF9300D00F9289
:10270000CDB7DEB79B838A830FB6F8940F92EA8128
:10271000FB81928DEA81FB81838D981719F481E00A
:10272000898301C019820F900FBE89810F900F908D
:102730000F90CF91DF910895DF93CF9300D000D019
:102740000F92CDB7DEB79D838C838C819D819A8358
:102750008983E981FA81928DE981FA81838D9817C5
:1027600019F481E08B8301C01B828B810F900F9045
:102770000F900F900F90CF91DF9108950F93DF93FB
:10278000CF93CDB7DEB728970FB6F894DEBF0FBE54
:10279000CDBF9D838C837F836E83488788858130FE
:1027A00019F481E0898301C019828E819F8100978D
:1027B00021F481E090E09F838E838C819D8101963E
:1027C0009D838C838C819D810F960E942A069B831A
:1027D0008A838A819B81009789F06A817B818A81C3
:1027E0009B819C01215F3F4F4C815D81EE81FF8188
:1027F000CB01B9019F0109810E94161B8A819B812F
:1028000028960FB6F894DEBF0FBECDBFCF91DF91F3
:102810000F910895DF93CF9300D000D0CDB7DEB7EE
:102820009C838B838B819C819A838983E981FA8144
:102830008685882F90E082709070009729F48981B6
:102840009A810E94800608C089819A8160E070E0C8
:102850004FE050E00E94382A0F900F900F900F9099
:10286000CF91DF9108950F93DF93CF9300D000D0E5
:102870000F92CDB7DEB79D838C838C819D819B8326
:102880008A8319820FB6F8940F92EA81FB818085C2
:1028900091850097F1F4EA81FB8182859385009709
:1028A000C1F4EA81FB8124853585EA81FB8144817D
:1028B0005581EA81FB81A681B781EA81FB81E685AA
:1028C0008A819B81B9019D010E2F0E94161B81E018
:1028D00089830F900FBE89810F900F900F900F90FA
:1028E0000F90CF91DF910F910895DF93CF93CDB7E4
:1028F000DEB727970FB6F894DEBF0FBECDBF9D831E
:102900008C837F836E838C819D819B838A838E8160
:102910009F81009721F481E090E09F838E83EA817C
:10292000FB81248135818E819F812817390748F0EA
:10293000EA81FB818E819F819783868381E08983F1
:1029400001C01982898127960FB6F894DEBF0FBEA9
:10295000CDBFCF91DF910895DF93CF9300D000D00A
:1029600000D0CDB7DEB79E838D838D819E819C8301
:102970008B83EB81FC8124813581EB81FC8180811B
:102980009181820F931F9A838983EB81FC8122813D
:10299000338189819A81821B930B9A8389838981F0
:1029A0009A8101979A838983EB81FC812481358107
:1029B00089819A818217930750F0EB81FC812481F1
:1029C000358189819A81821B930B9A8389838981BE
:1029D0009A8126960FB6F894DEBF0FBECDBFCF9179
:1029E000DF910895DF93CF9300D000D000D0CDB712
:1029F000DEB79E838D838D819E819C838B838B81AB
:102A00009C810E94DC1A9A83898389819A81269607
:102A10000FB6F894DEBF0FBECDBFCF91DF91089502
:102A2000EF92FF920F931F93DF93CF93CDB7DEB753
:102A300063970FB6F894DEBF0FBECDBF9D878C871E
:102A40007F876E87598B488B3B8B2A8B8C859D8526
:102A500098878F831C821B82888999899A838983AE
:102A6000EF81F8858685882F90E0817090708823AB
:102A700029F089819A8102969A8389838A899B8920
:102A8000009709F440C0CE0109960E94AC220FB60F
:102A9000F8940F928F8198850E94AC149C838B834D
:102AA0002B813C8189819A812817390750F580E074
:102AB00090E00E9479290E941524EF81F885938780
:102AC00082870F900FBEEA89FB8960E070E080E0AA
:102AD00090E020E030E040E050E000E010E07F01D6
:102AE0000E948226EF81F88513861286CE01099610
:102AF0009E012E5E3F4FB9010E94E322882339F2E6
:102B000002C00F900FBE8B819C81009731F48F81A2
:102B100098850E94AC149C838B838F8198852E8529
:102B20003F8548895989EB81FC81A981BA81B90126
:102B30009F018D010E9455169E838D838D819E81FC
:102B4000009739F18F8198850E94DC1A9C01EF81F2
:102B5000F8858681978128173907D8F00E94441F8D
:102B6000EF81F88580859185009789F0EF81F88560
:102B70008085918540E050E060E070E020E000E07A
:102B800010E00E941E27EF81F885118610860E94B2
:102B9000501F8D819E8163960FB6F894DEBF0FBEE5
:102BA000CDBFCF91DF911F910F91FF90EF900895CE
:102BB000EF92FF920F931F93DF93CF93CDB7DEB7C2
:102BC00061970FB6F894DEBF0FBECDBF9B878A8793
:102BD0007D876C875F874E87398B288B8A859B859D
:102BE000998788878E859F859B838A83E885F98569
:102BF0008685882F90E081709070882329F08A81E3
:102C00009B8102969B838A83888599850E94AC1458
:102C10009D838C83888599852C853D854E855F8530
:102C2000EC81FD81AA81BB81B9019F018D010E94C8
:102C300055169F838E838E819F81009739F18885F9
:102C400099850E94DC1A9C01E885F9858681978127
:102C500028173907D8F01982E885F985808591858C
:102C60000097A1F0E885F98580859185E889F98943
:102C700040E050E060E070E020E000E010E07F0124
:102C80000E94FB27E885F985118610868E819F8139
:102C900061960FB6F894DEBF0FBECDBFCF91DF9126
:102CA0001F910F91FF90EF9008950F931F93DF9363
:102CB000CF93CDB7DEB761970FB6F894DEBF0FBEE6
:102CC000CDBF9D838C837F836E83598748873B87E5
:102CD0002A871D870C878A859B85009711F41B82A4
:102CE00038C0EC81FD818685882F90E081709070DE
:102CF0000097D1F481E08B8328853985398B288B27
:102D00008A859B859F878E872E853F8588899989AF
:102D10008217930720F4288939893F872E878E856B
:102D20009F859987888715C02A853B858C859D85D9
:102D30002817390768F081E08B839E01285F3F4F99
:102D40008C819D81B90142E050E00E94A21901C02E
:102D50001B828B81882361F02E813F8148855985B4
:102D60008C819D81B9010E94A2199A83898302C036
:102D70001A82198289819A8161960FB6F894DEBF12
:102D80000FBECDBFCF91DF911F910F910895EF92AC
:102D9000FF920F931F93DF93CF93CDB7DEB760976A
:102DA0000FB6F894DEBF0FBECDBF9A8789877C87A8
:102DB0006B875E874D87388B2F8789859A859887A3
:102DC0008F831E821D82EF81F8858685882F90E093
:102DD00081709070882329F082E090E09A83898343
:102DE00002C01A8219828F859889009709F43DC024
:102DF0000FB6F8940F928F8198850E94DC1A9C83FD
:102E00008B832B813C8189819A818217930750F0B3
:102E100080E090E00E9479290E941524EF81F885D6
:102E2000918780870F900FBE2B813C8189819A8189
:102E30008217930700F1EF85F88960E070E080E089
:102E400090E020E030E040E050E000E010E07F0162
:102E50000E948226EF81F885118610868F819885E1
:102E60000E94DC1A9C838B8306C08F8198850E9408
:102E7000DC1A9C838B832B813C8189819A81821708
:102E8000930780F58F8198852B853C854D855E85E0
:102E9000EB81FC81A981BA81B9019F018D010E945A
:102EA0004B189E838D838D819E810097D9F00E945F
:102EB000441FEF81F88582859385009789F0EF8123
:102EC000F8858285938540E050E060E070E020E086
:102ED00000E010E00E941E27EF81F885138612861D
:102EE0000E94501F8D819E8160960FB6F894DEBFC0
:102EF0000FBECDBFCF91DF911F910F91FF90EF904B
:102F00000895DF93CF93CDB7DEB72C970FB6F89423
:102F1000DEBF0FBECDBF9C878B878B859C85988736
:102F20008F83EF81F8858685882F90E0817090707F
:102F3000882361F18F8198850E94DC1A9C838B83A2
:102F40008B819C8183309105F0F0EF81F885808141
:102F500091819A8389839E01275F3F4F8F81988556
:102F6000EB81FC81B90142E050E09F010E942F1AE1
:102F700089859A859E838D83EF81F88589819A81E1
:102F80009183808305C01E821D8202C01E821D8225
:102F90008D819E812C960FB6F894DEBF0FBECDBFFB
:102FA000CF91DF910895EF92FF920F931F93DF93DC
:102FB000CF93CDB7DEB761970FB6F894DEBF0FBEE3
:102FC000CDBF9B878A877D876C875F874E87398BCC
:102FD000288B8A859B85998788871F821E82E88532
:102FE000F9858685882F90E081709070882329F07C
:102FF00082E090E09B838A8302C01B821A828885CC
:1030000099850E94DC1A9D838C832C813D818A8165
:103010009B818217930780F5888599852C853D854E
:103020004E855F85EC81FD81AA81BB81B9019F013D
:103030008D010E944B189F838E838E819F81009704
:10304000D9F01982E885F985828593850097A1F0EA
:10305000E885F98582859385E889F98940E050E023
:1030600060E070E020E000E010E07F010E94FB27BC
:10307000E885F985138612868E819F8161960FB649
:10308000F894DEBF0FBECDBFCF91DF911F910F919E
:10309000FF90EF9008950F931F93DF93CF93CDB7D9
:1030A000DEB762970FB6F894DEBF0FBECDBF9A872A
:1030B00089877C876B875E874D87388B2F871A8B34
:1030C000098B89899A89009791F1E985FA85808130
:1030D00091819E838D83AE01495F5F4F89859A857B
:1030E00029893A89EF85F889BA01A9019F010E94CF
:1030F0002F1A8F8198859A8389832F8538898989AA
:103100009A89A901481B590BCA01988B8F8729817D
:103110003A818D859E858217930768F4E985FA8543
:103120008D819E81918380831A82198204C08D854E
:103130009E859A8389834B855C8589859A852981BB
:103140003A81EF85F889BA01A9019F010E942F1ADF
:103150009C838B838B819C8162960FB6F894DEBF33
:103160000FBECDBFCF91DF911F910F910895DF93D7
:10317000CF93CDB7DEB727970FB6F894DEBF0FBE5B
:10318000CDBF9F838E838E819F819D838C83EC81B5
:10319000FD81808191819A838983EC81FD812281E7
:1031A000338189819A812817390719F481E08B834B
:1031B00001C01B828B8127960FB6F894DEBF0FBE2D
:1031C000CDBFCF91DF910895DF93CF93CDB7DEB719
:1031D00027970FB6F894DEBF0FBECDBF9F838E83B7
:1031E0008E819F819A838983E981FA818685882FE0
:1031F00090E081709070882329F082E090E09C83B9
:103200008B8302C01C821B828E819F810E94AC1422
:103210009C018B819C818217930718F081E08D833C
:1032200001C01D828D8127960FB6F894DEBF0FBEB8
:10323000CDBFCF91DF910895EF92FF920F931F932F
:10324000DF93CF93CDB7DEB728970FB6F894DEBFE4
:103250000FBECDBF9E838D8378876F838D819E81C6
:103260009C838B831982EB81FC81808591850097FB
:10327000B9F0EB81FC8180859185EF81F88540E094
:1032800050E060E070E020E000E010E07F010E948C
:10329000FB27EB81FC811186108681E08A8301C0C7
:1032A0001A828A8128960FB6F894DEBF0FBECDBF72
:1032B000CF91DF911F910F91FF90EF900895EF92C2
:1032C000FF920F931F93DF93CF93CDB7DEB728976D
:1032D0000FB6F894DEBF0FBECDBF9E838D83788777
:1032E0006F838D819E819C838B831982EB81FC810E
:1032F000828593850097B9F0EB81FC818285938567
:10330000EF81F88540E050E060E070E020E000E010
:1033100010E07F010E94FB27EB81FC81138612865F
:1033200081E08A8301C01A828A8128960FB6F894B8
:10333000DEBF0FBECDBFCF91DF911F910F91FF90E8
:10334000EF900895DF93CF93CDB7DEB72E970FB6EA
:10335000F894DEBF0FBECDBF9E838D8378876F83C9
:103360005A874987ED81FE81828193819C838B837B
:10337000ED81FE81248135818B819C81A901481BCF
:10338000590BCA0129853A853E872D879C878B87F3
:103390004B855C858D859E858417950720F42D854A
:1033A0003E853C872B874B855C855A834983ED811D
:1033B000FE81248535858B819C81820F931F2F810F
:1033C000388549815A81B9010E942F2A29853A8579
:1033D00089819A8182179307B0F4ED81FE8164851B
:1033E00075852F81388589819A81A901480F591FD8
:1033F00029853A8589819A81281B390BCB01BA012D
:10340000A9010E942F2A2B813C8189859A85820FF0
:10341000931F9C838B83ED81FE81248135818B8179
:103420009C818217930750F0ED81FE8124813581C4
:103430008B819C81821B930B9C838B83ED81FE810E
:103440008B819C819383828389859A852E960FB682
:10345000F894DEBF0FBECDBFCF91DF910895DF930B
:10346000CF93CDB7DEB766970FB6F894DEBF0FBE29
:10347000CDBF98878F837A8769875C874B873E8724
:103480002D872D853E853A8B298B4B855C85588B06
:103490004F878F85988929893A892817390720F419
:1034A00049895A89588B4F878F8598899E838D8348
:1034B0008D819E81009709F474C0EF81F885808129
:1034C00091819A838983EF81F8852481358189816F
:1034D0009A81A901481B590BCA012D813E813E8B5F
:1034E0002D8B9C8B8B8B4B895C898D899E89841756
:1034F000950720F42D893E893C8B2B8B4B895C8969
:103500005C834B83EF81F8852485358589819A8199
:10351000A901480F591F89859A852B813C81BA01E1
:10352000A9010E942F2A2D813E818B819C818217C7
:103530009307B0F429853A858B819C81B901680F86
:10354000791FEF81F885448555852D813E818B81DA
:103550009C81281B390BCB01BA01A9010E942F2A9B
:1035600029813A818D819E81820F931F9A8389835D
:10357000EF81F8852481358189819A8182179307AB
:1035800050F0EF81F8852481358189819A81821BF1
:10359000930B9A838983EF81F88589819A8191833E
:1035A00080838D819E8166960FB6F894DEBF0FBE34
:1035B000CDBFCF91DF910895DF93CF9300D000D09E
:1035C000CDB7DEB79C838B83EB81FC812481358171
:1035D000EB81FC8182819381820F931F9A8389837F
:1035E000EB81FC812081318189819A81821B930B3F
:1035F0009A838983EB81FC812481358189819A8139
:103600008217930750F0EB81FC81248135818981F9
:103610009A81821B930B9A83898389819A810F9067
:103620000F900F900F90CF91DF9108950F93DF933C
:10363000CF93CDB7DEB729970FB6F894DEBF0FBE94
:10364000CDBF9A8389837C836B835E834D83388768
:103650002F83098789819A8160E070E04FE050E014
:103660000E94382AE981FA818B819C819587848721
:10367000E981FA818D819E8195838483E981FA8134
:103680008F81988597838683E981FA8189858687EA
:1036900029960FB6F894DEBF0FBECDBFCF91DF9154
:1036A0000F9108958F929F92AF92BF92CF92DF9227
:1036B000EF92FF920F931F93DF93CF93CDB7DEB7B7
:1036C00060970FB6F894DEBF0FBECDBF9F838E8389
:1036D000798768875B874A873D872C870E87F88ABA
:1036E000EF868A859B850E942A069A838983898131
:1036F0009A810097B1F08AE290E00E942A069D83A9
:103700008C838C819D81009739F0EC81FD818981CA
:103710009A81908F878B07C089819A810E94800649
:1037200002C01D821C828C819D810097E9F08A85F0
:103730009B859C0140E050E08E819F816885798562
:10374000EC85FD85AF85B889AC80BD808F01EE84A6
:103750006D01882499240E94CA1B8C819D810E943E
:103760008D1C81E08B8302C08FEF8B838B816096F1
:103770000FB6F894DEBF0FBECDBFCF91DF911F9182
:103780000F91FF90EF90DF90CF90BF90AF909F9000
:103790008F9008958F929F92AF92BF92CF92DF92B7
:1037A000EF920F931F93DF93CF93CDB7DEB764975C
:1037B0000FB6F894DEBF0FBECDBF9D838C837F8391
:1037C0006E83288739874A875B871D870C87EE863B
:1037D000D88ACF86BA8AA98A9C8A8B8AE989FA898B
:1037E0002789308D888599850197820F931F9B8348
:1037F0008A838E819F81009751F1198221C089812E
:10380000482F50E08981282F30E08E819F81FC0174
:10381000E20FF31F208189899A89840F951FFC018B
:10382000799620838981282F30E08E819F81FC0149
:10383000E20FF31F8081882331F089818F5F8983B4
:1038400089818A30E0F2E989FA8912A203C0E98904
:10385000FA89118E8E85843010F083E08E87E98995
:10386000FA898E85868BE989FA898E8583A3E98911
:10387000FA8914A289899A8902960E94D0068989B8
:103880009A890C960E94D006E989FA8989899A89D1
:10389000918780878E85282F30E084E090E0821B1E
:1038A000930BE989FA8995878487E989FA89898957
:1038B0009A89938B828BE989FA8915A216A217A29D
:1038C00010A6E989FA8911A68A819B812C813D8104
:1038D0004C855D85B9010E947D08E989FA8991834B
:1038E00080838F859889009731F0EF85F8898989E1
:1038F0009A899183808364960FB6F894DEBF0FBED9
:10390000CDBFCF91DF911F910F91EF90DF90CF90BE
:10391000BF90AF909F908F900895DF93CF9300D08A
:10392000CDB7DEB79A8389830FB6F8940F92809152
:103930004B068F5F80934B06809148069091490615
:10394000009769F489819A8190934906809348068B
:1039500080914B068130B9F40E94642314C0809199
:103960004F06882381F4E0914806F0914906968934
:10397000E981FA818689891730F089819A8190934B
:10398000490680934806809153068F5F80935306C3
:10399000E981FA81968980914E06891728F4E98198
:1039A000FA81868980934E06E981FA818689282FDB
:1039B00030E0C901880F991F880F991F880F991F40
:1039C000820F931FAC01475A594F89819A819C01FC
:1039D0002E5F3F4FCA01B9010E94E0060F900FBE53
:1039E00080914F06882361F0E0914806F0914906E6
:1039F0009689E981FA818689981710F40E943C0A19
:103A00000F900F90CF91DF910895DF93CF9300D067
:103A100000D000D0CDB7DEB79C838B830FB6F8946F
:103A20000F928B819C81009739F480914806909188
:103A300049069E838D8304C08B819C819E838D83E8
:103A40008D819E819A83898389819A8102960E94C1
:103A50009007E981FA8184899589009729F0898105
:103A60009A810C960E949007809153068F5F8093F5
:103A70005306209148063091490689819A81821720
:103A8000930781F489819A819C012E5F3F4F8CE9D5
:103A900096E0B9010E94E00680914A068F5F80930C
:103AA0004A060BC080914B06815080934B0689815A
:103AB0009A810E94D4230E94EA230F900FBE809126
:103AC0004F06882359F02091480630914906898194
:103AD0009A818217930711F40E943C0A26960FB62A
:103AE000F894DEBF0FBECDBFCF91DF910895DF9375
:103AF000CF9300D00F92CDB7DEB79B838A83198214
:103B00008A819B81009751F00E94441F8A819B818A
:103B100060E00E94B3290E94501F89838981882315
:103B200011F40E943C0A0F900F900F90CF91DF91FB
:103B30000895DF93CF9300D000D000D0CDB7DEB78B
:103B40009C838B830FB6F8940F928B819C81009796
:103B500039F480914806909149069E838D8304C074
:103B60008B819C819E838D838D819E819A838983A5
:103B700089819A8102960E949007E981FA8184895D
:103B80009589009729F089819A810C960E94900767
:103B900089819A819C012E5F3F4F85EA96E0B901A9
:103BA0000E94E006E981FA8181A5813019F4E9815A
:103BB000FA8111A60F900FBE80914F06882339F02D
:103BC0000FB6F8940F920E94EA230F900FBE209137
:103BD00048063091490689819A8182179307A1F49A
:103BE00080914F06882319F00E943C0A0DC09091E5
:103BF000A50680914B06981729F410924906109259
:103C0000480602C00E94252126960FB6F894DEBF12
:103C10000FBECDBFCF91DF910895DF93CF9300D03A
:103C200000D00F92CDB7DEB79D838C831B828C8131
:103C30009D819A838983E981FA818285938526E033
:103C4000853A920781F4E981FA818489958926E091
:103C50008339920741F0E981FA8184899589009737
:103C600011F481E08B838B810F900F900F900F9058
:103C70000F90CF91DF910895DF93CF9300D000D0C4
:103C8000CDB7DEB79C838B838B819C819A8389839C
:103C9000209148063091490689819A8182179307BD
:103CA00009F447C089819A81009709F442C00FB690
:103CB000F8940F9289819A810E940D1E8823B9F190
:103CC00089819A8102960E949007E981FA819689FA
:103CD00080914E06891728F4E981FA8186898093BC
:103CE0004E06E981FA818689282F30E0C901880FC4
:103CF000991F880F991F880F991F820F931FAC017E
:103D0000475A594F89819A819C012E5F3F4FCA01C2
:103D1000B9010E94E006E981FA819689E09148069E
:103D2000F09149068689981710F00E943C0A0F907E
:103D30000FBE0F900F900F900F90CF91DF910895CD
:103D4000DF93CF9300D000D000D0CDB7DEB79E83F5
:103D50008D831C828D819E819B838A8319828A81B7
:103D60009B810E940D1E882309F446C0809158064D
:103D70008823C1F5EA81FB819689E0914806F0919C
:103D800049068689981710F081E08C838A819B818F
:103D900002960E949007EA81FB81968980914E06E7
:103DA000891728F4EA81FB81868980934E06EA818F
:103DB000FB818689282F30E0C901880F991F880F61
:103DC000991F880F991F820F931FAC01475A594FB3
:103DD0008A819B819C012E5F3F4FCA01B9010E94DD
:103DE000E0060AC08A819B819C01245F3F4F83E9E2
:103DF00096E0B9010E94E0068C8126960FB6F894F1
:103E0000DEBF0FBECDBFCF91DF910895EF92FF923D
:103E10000F93DF93CF930F92CDB7DEB78AE593E28E
:103E200020E630E0E6E5F6E0B90145E550E020E0C7
:103E300030E000E07F010E94521B8983898181303C
:103E400081F4F8948FEF9FEF90935506809354067A
:103E500081E080934F0610924D0610924C060E940E
:103E6000000A0F90CF91DF910F91FF90EF9008958E
:103E7000DF93CF93CDB7DEB7F89410924F060E9430
:103E8000350ACF91DF910895DF93CF93CDB7DEB799
:103E9000809158068F5F80935806CF91DF910895E7
:103EA000DF93CF9300D000D0CDB7DEB71C821B824A
:103EB0001A820FB6F8940F92809158068150809321
:103EC000580680915806882309F073C080914B06EC
:103ED000882309F46EC045C0E0919806F0919906D8
:103EE000868197819C838B838B819C810C960E9419
:103EF00090078B819C8102960E949007EB81FC8148
:103F0000968980914E06891728F4EB81FC81868979
:103F100080934E06EB81FC818689282F30E0C90111
:103F2000880F991F880F991F880F991F820F931F61
:103F3000AC01475A594F8B819C819C012E5F3F4FAA
:103F4000CA01B9010E94E006EB81FC819689E091EB
:103F50004806F09149068689981718F081E0809309
:103F6000510680919306882309F0B6CF8B819C81FE
:103F7000009711F00E94EA2380915006898389817D
:103F8000882379F00E944020882319F081E08093F3
:103F900051068981815089838981882399F71092FC
:103FA000500680915106882321F081E08A830E9487
:103FB0003C0A0F900FBE8A810F900F900F900F90C8
:103FC000CF91DF910895DF93CF9300D0CDB7DEB7C7
:103FD0000FB6F8940F9280914C0690914D069A83FB
:103FE00089830F900FBE89819A810F900F90CF9196
:103FF000DF910895DF93CF9300D00F92CDB7DEB756
:10400000198280914C0690914D069B838A838A8108
:104010009B810F900F900F90CF91DF910895DF93C8
:10402000CF93CDB7DEB780914B06CF91DF91089546
:10403000DF93CF9300D000D000D0CDB7DEB79C8304
:104040008B838B819C81009739F4809148069091F5
:1040500049069E838D8304C08B819C819E838D83C2
:104060008D819E819A83898389819A81499626963A
:104070000FB6F894DEBF0FBECDBFCF91DF9108958C
:10408000DF93CF93CDB7DEB729970FB6F894DEBF95
:104090000FBECDBF1D8280915806882309F0C0C095
:1040A00080914C0690914D0601969C838B838B8169
:1040B0009C8190934D0680934C068B819C81009748
:1040C000D9F480918F06909190069A83898380918C
:1040D0009106909192069093900680938F06898125
:1040E0009A819093920680939106809152068F5FF9
:1040F000809352060E94EA2320915406309155067F
:104100008B819C818217930708F471C0E0918F0620
:10411000F09190068081882339F48FEF9FEF909380
:1041200055068093540663C0E0918F06F091900687
:104130000580F681E02D8681978199878887E885BB
:10414000F985828193819F838E832B813C818E812F
:104150009F812817390738F48E819F8190935506E7
:104160008093540644C08885998502960E949007E2
:10417000E885F98584899589009729F0888599854E
:104180000C960E949007E885F985968980914E06E5
:10419000891728F4E885F985868980934E06E88595
:1041A000F9858689282F30E0C901880F991F880F6B
:1041B000991F880F991F820F931FAC01475A594FBF
:1041C000888599859C012E5F3F4FCA01B9010E94E5
:1041D000E006E885F9859689E0914806F091490660
:1041E0008689981708F492CF81E08D838FCFE09174
:1041F0004806F09149068689282F30E0C901880FCA
:10420000991F880F991F880F991F820F931FFC0118
:10421000E75AF94F8081823040F081E08D8305C0FC
:10422000809150068F5F80935006809151068823BD
:1042300011F081E08D838D8129960FB6F894DEBF51
:104240000FBECDBFCF91DF910895DF93CF9300D004
:104250000F92CDB7DEB780915806882321F081E018
:104260008093510659C01092510680914E068B835F
:1042700003C08B8181508B838B81282F30E0C90153
:10428000880F991F880F991F880F991F820F931FFE
:10429000FC01E75AF94F8081882359F38B81282F3D
:1042A00030E0C901880F991F880F991F880F991F47
:1042B000820F931F875A994F9A838983E981FA81E4
:1042C0000180F281E02D82819381E981FA819283DC
:1042D0008183E981FA812181328189819A810396E2
:1042E0002817390759F4E981FA810180F281E02D1C
:1042F00082819381E981FA8192838183E981FA81C4
:104300000180F281E02D8681978190934906809308
:1043100048068B8180934E060F900F900F90CF919F
:10432000DF910895DF93CF9300D000D0CDB7DEB7F3
:104330009A8389837C836B83809148069091490698
:104340009C01245F3F4F89819A81B9010E94240713
:104350008B819C8161E00E94B3290F900F900F9098
:104360000F90CF91DF910895DF93CF9300D000D0CD
:1043700000D0CDB7DEB79A8389837C836B835E835D
:104380004D83E0914806F09149068B819C819068AD
:104390009587848780914806909149069C01245F07
:1043A0003F4F89819A81B9010E94E0068D819E81EB
:1043B00061E00E94B32926960FB6F894DEBF0FBEC7
:1043C000CDBFCF91DF910895DF93CF9300D000D080
:1043D0000F92CDB7DEB79D838C83EC81FD81058084
:1043E000F681E02D868197819B838A838A819B81D8
:1043F0000C960E94900780915806882361F58A8167
:104400009B8102960E949007EA81FB8196898091A8
:104410004E06891728F4EA81FB81868980934E062F
:10442000EA81FB818689282F30E0C901880F991F16
:10443000880F991F880F991F820F931FAC01475A4D
:10444000594F8A819B819C012E5F3F4FCA01B90160
:104450000E94E0060AC08A819B819C01245F3F4F35
:1044600083E996E0B9010E94E006EA81FB81968922
:10447000E0914806F09149068689891730F481E079
:10448000898381E08093510601C0198289810F9050
:104490000F900F900F900F90CF91DF910895DF93C1
:1044A000CF9300D000D000D0CDB7DEB79C838B83F4
:1044B0007E836D838D819E819068EB81FC819183E9
:1044C0008083EB81FC81868197819A8389838B81AC
:1044D0009C810E94900789819A8102960E94900790
:1044E000E981FA81968980914E06891728F4E9813D
:1044F000FA81868980934E06E981FA818689282F80
:1045000030E0C901880F991F880F991F880F991FE4
:10451000820F931FAC01475A594F89819A819C01A0
:104520002E5F3F4FCA01B9010E94E006E981FA817E
:104530009689E0914806F09149068689891718F412
:1045400081E08093510626960FB6F894DEBF0FBE29
:10455000CDBFCF91DF910895DF93CF9300D0CDB73A
:10456000DEB79A8389830FB6F8940F928091520632
:10457000E981FA81808380914C0690914D06E98112
:10458000FA81928381830F900FBE0F900F90CF918D
:10459000DF910895DF93CF9300D0CDB7DEB79A8334
:1045A000898380915206E981FA81808380914C064B
:1045B00090914D06E981FA81928381830F900F904B
:1045C000CF91DF910895DF93CF93CDB7DEB72997D1
:1045D0000FB6F894DEBF0FBECDBF9F838E83798761
:1045E00068870FB6F8940F9280914C0690914D0613
:1045F0009C838B83EE81FF81218132818B819C8121
:10460000821B930B9A838983E885F9858081918148
:104610002FEF8F3F920711F41D8236C0EE81FF818C
:10462000908180915206981761F0EE81FF8121817F
:1046300032818B819C818217930718F081E08D83F2
:1046400023C0E885F9852081318189819A8182178B
:104650009307A0F4E885F9852081318189819A81C9
:10466000A901481B590BCA01E885F985918380830C
:104670008E819F810E94CA221D8206C0E885F9852D
:104680001182108281E08D830F900FBE8D8129965B
:104690000FB6F894DEBF0FBECDBFCF91DF91089566
:1046A000DF93CF93CDB7DEB781E080935106CF91F2
:1046B000DF910895DF93CF9300D0CDB7DEB79A8313
:1046C00089830E94A523FDCFDF93CF930F92CDB7AF
:1046D000DEB7198213C08981282F30E0C901880F05
:1046E000991F880F991F880F991F820F931F875A50
:1046F000994F0E94A60689818F5F898389818430C2
:1047000050F38DE796E00E94A60686E896E00E94A8
:10471000A60683E996E00E94A6068CE996E00E9430
:10472000A60685EA96E00E94A6068DE796E090939D
:10473000900680938F0686E896E090939206809389
:1047400091060F90CF91DF910895DF93CF9300D022
:10475000CDB7DEB720C00FB6F8940F92E091A10656
:10476000F091A206868197819A83898389819A81B3
:1047700002960E94900780914B06815080934B06D1
:1047800080914A06815080934A060F900FBE89811E
:104790009A810E94D42380914A068823E1F60F90E3
:1047A0000F90CF91DF910895DF93CF9300D0CDB7D5
:1047B000DEB79A838983E981FA818789908D0E9487
:1047C000800689819A810E9480060F900F90CF9178
:1047D000DF910895DF93CF9300D0CDB7DEB7E0919E
:1047E0008F06F09190068081882339F48FEF9FEF38
:1047F000909355068093540613C0E0918F06F09174
:1048000090060580F681E02D868197819A838983C1
:10481000E981FA81828193819093550680935406B1
:104820000F900F90CF91DF910895DF93CF9300D039
:10483000CDB7DEB780914806909149069A83898367
:1048400089819A810F900F90CF91DF910895DF9326
:10485000CF9300D000D00F92CDB7DEB79D838C836D
:104860008C819D819B838A8319828C819D81009795
:1048700009F482C0EA81FB819689E0914806F091B3
:1048800049068689981708F06BC0EA81FB81848508
:10489000958599237CF0E0914806F0914906868938
:1048A000282F30E084E090E0821B930BEA81FB81AB
:1048B00095878487EA81FB8142855385EA81FB8164
:1048C0008689282F30E0C901880F991F880F991F0A
:1048D000880F991F820F931F875A994F48175907BE
:1048E000A1F58A819B8102960E949007E09148067B
:1048F000F09149068689EA81FB81868BEA81FB81FA
:10490000968980914E06891728F4EA81FB81868971
:1049100080934E06EA81FB818689282F30E0C90109
:10492000880F991F880F991F880F991F820F931F57
:10493000AC01475A594F8A819B819C012E5F3F4FA2
:10494000CA01B9010E94E00608C0E0914806F09152
:1049500049068689EA81FB81868B81E089830CC0C8
:10496000EA81FB8193A1E0914806F091490686898E
:10497000981710F481E0898389810F900F900F9030
:104980000F900F90CF91DF910895DF93CF9300D0D8
:1049900000D00F92CDB7DEB79D838C838C819D8133
:1049A0009B838A8319828C819D81009709F456C06C
:1049B000EA81FB8184A18150EA81FB8184A3EA81A1
:1049C000FB819689EA81FB8183A1981709F446C08F
:1049D000EA81FB8184A1882309F040C08A819B8100
:1049E00002960E949007EA81FB8183A1EA81FB8104
:1049F000868BEA81FB818689282F30E084E090E075
:104A0000821B930BEA81FB8195878487EA81FB8176
:104A1000968980914E06891728F4EA81FB81868960
:104A200080934E06EA81FB818689282F30E0C901F8
:104A3000880F991F880F991F880F991F820F931F46
:104A4000AC01475A594F8A819B819C012E5F3F4F91
:104A5000CA01B9010E94E00681E0898389810F9033
:104A60000F900F900F900F90CF91DF910895DF93EB
:104A7000CF93CDB7DEB728970FB6F894DEBF0FBE41
:104A8000CDBF9F838E8368878E819F819D838C831A
:104A900081E089838E819F81009709F474C0EC8145
:104AA000FD8193A18885981718F488858A8304C0AE
:104AB000EC81FD8183A18A83EC81FD8196898A81C5
:104AC000981709F460C0EC81FD8194A18981981741
:104AD00009F059C0EC81FD8186898B83EC81FD81D1
:104AE0008A81868BEC81FD818485958599235CF094
:104AF0008A81282F30E084E090E0821B930BEC81C8
:104B0000FD8195878487EC81FD81428553858B816A
:104B1000282F30E0C901880F991F880F991F880F2F
:104B2000991F820F931F875A994F4817590759F5B4
:104B30008C819D8102960E949007EC81FD8196896F
:104B400080914E06891728F4EC81FD818689809337
:104B50004E06EC81FD818689282F30E0C901880F3F
:104B6000991F880F991F880F991F820F931FAC01FF
:104B7000475A594F8C819D819C012E5F3F4FCA013E
:104B8000B9010E94E00628960FB6F894DEBF0FBE6A
:104B9000CDBFCF91DF910895DF93CF9300D0CDB7F4
:104BA000DEB7E0914806F0914906848595859A83A1
:104BB0008983A0914806B0914906E0914806F0919A
:104BC00049068689282F30E084E090E0821B930B11
:104BD0001D969C938E931C9789819A810F900F90BC
:104BE000CF91DF910895DF93CF93CDB7DEB780915A
:104BF000480690914906009739F0E0914806F091F7
:104C0000490684A18F5F84A380914806909149064C
:104C1000CF91DF910895DF93CF93CDB7DEB727977C
:104C20000FB6F894DEBF0FBECDBF8D837F836E833A
:104C30000FB6F8940F92E0914806F091490685A1CD
:104C400096A1A7A1B0A50097A105B10589F4E091AF
:104C50004806F091490681E081A78E819F810097E7
:104C600039F08E819F8161E00E94B3290E943C0A45
:104C70000F900FBE0FB6F8940F92E0914806F09196
:104C8000490685A196A1A7A1B0A589839A83AB8384
:104C9000BC8389819A81AB81BC810097A105B10554
:104CA000D9F08D81882349F0E0914806F0914906BA
:104CB00015A216A217A210A60FC0E0914806F09107
:104CC000490689819A81AB81BC810197A109B1090B
:104CD00085A396A3A7A3B0A7E0914806F091490643
:104CE00011A60F900FBE89819A81AB81BC81BC0156
:104CF000CD0127960FB6F894DEBF0FBECDBFCF9182
:104D0000DF910895EF92FF920F931F93DF93CF935C
:104D1000CDB7DEB72D970FB6F894DEBF0FBECDBF6F
:104D20006A837B838C839D832E833F834887598747
:104D30001B870A87FD86EC860FB6F8940F92E091E8
:104D40004806F091490681A5823049F1E091480674
:104D5000F091490625A136A147A150A58A819B81E2
:104D6000AC81BD8180959095A095B09582239323C9
:104D7000A423B52385A396A3A7A3B0A7E0914806D3
:104D8000F091490681E081A78C859D85009739F0D7
:104D90008C859D8561E00E94B3290E943C0A0F909A
:104DA0000FBE0FB6F8940F928A859B85009771F01D
:104DB000E0914806F091490685A196A1A7A1B0A56A
:104DC000EA85FB8580839183A283B383E0914806C3
:104DD000F091490681A5823011F019821AC0E09144
:104DE0004806F091490625A136A147A150A58E811C
:104DF0009F81A885B98580959095A095B0958223CF
:104E00009323A423B52385A396A3A7A3B0A781E0EA
:104E10008983E0914806F091490611A60F900FBED4
:104E200089812D960FB6F894DEBF0FBECDBFCF910E
:104E3000DF911F910F91FF90EF9008950F931F93B3
:104E4000DF93CF93CDB7DEB72F970FB6F894DEBFC1
:104E50000FBECDBF9E838D834F83588769877A8726
:104E60002B871D870C8781E08A838D819E819C839F
:104E70008B830FB6F8940F928C859D85009761F017
:104E8000EB81FC8185A196A1A7A1B0A5EC85FD854C
:104E900080839183A283B383EB81FC8181A5898385
:104EA000EB81FC8182E081A78B85282F30E03F8752
:104EB0002E878E859F858230910559F12E853F85FD
:104EC0002330310534F48E859F858130910561F062
:104ED0004AC02E853F852330310559F18E859F8547
:104EE0008430910589F13FC0EB81FC8125A136A179
:104EF00047A150A58F819885A985BA85822B932BD0
:104F0000A42BB52BEB81FC8185A396A3A7A3B0A707
:104F10002AC0EB81FC8185A196A1A7A1B0A501962D
:104F2000A11DB11DEB81FC8185A396A3A7A3B0A70A
:104F30001AC0EB81FC818F819885A985BA8585A3EC
:104F400096A3A7A3B0A70FC08981823059F0EB8147
:104F5000FC818F819885A985BA8585A396A3A7A38F
:104F6000B0A701C01A8289818130B9F58B819C81FB
:104F700002960E949007EB81FC81968980914E06F3
:104F8000891728F4EB81FC81868980934E06EB819A
:104F9000FC818689282F30E0C901880F991F880F6E
:104FA000991F880F991F820F931FAC01475A594FC1
:104FB0008B819C819C012E5F3F4FCA01B9010E94E9
:104FC000E006EB81FC819689E0914806F091490664
:104FD0008689891710F40E943C0A0F900FBE8A81BF
:104FE0002F960FB6F894DEBF0FBECDBFCF91DF91E5
:104FF0001F910F910895EF92FF920F931F93DF93EC
:10500000CF93CDB7DEB762970FB6F894DEBF0FBE71
:10501000CDBF9F838E83488759876A877B872C877C
:105020001E870D87F88AEF8681E08A838E819F81B3
:105030009D838C8319828D859E85009761F0EC811C
:10504000FD8185A196A1A7A1B0A5ED85FE858083F0
:105050009183A283B383EC81FD8181A58B83EC8155
:10506000FD8182E081A78C85282F30E03A8B298B47
:1050700089899A898230910559F129893A892330A1
:10508000310534F489899A898130910561F04AC0EB
:1050900029893A892330310559F189899A898430DF
:1050A000910589F13FC0EC81FD8125A136A147A181
:1050B00050A588859985AA85BB85822B932BA42B27
:1050C000B52BEC81FD8185A396A3A7A3B0A72AC029
:1050D000EC81FD8185A196A1A7A1B0A50196A11D96
:1050E000B11DEC81FD8185A396A3A7A3B0A71AC02B
:1050F000EC81FD8188859985AA85BB8585A396A3CA
:10510000A7A3B0A70FC08B81823059F0EC81FD813D
:1051100088859985AA85BB8585A396A3A7A3B0A7F3
:1051200001C01A828B81813009F04FC080915806EE
:10513000882361F58C819D8102960E949007EC8105
:10514000FD81968980914E06891728F4EC81FD81B6
:10515000868980934E06EC81FD818689282F30E078
:10516000C901880F991F880F991F880F991F820FF7
:10517000931FAC01475A594F8C819D819C012E5F32
:105180003F4FCA01B9010E94E0060AC08C819D818F
:105190009C01245F3F4F83E996E0B9010E94E0063D
:1051A000EC81FD819689E0914806F0914906868957
:1051B000891758F48F859889009721F0EF85F88931
:1051C00081E0808381E0809351068A8162960FB6E8
:1051D000F894DEBF0FBECDBFCF91DF911F910F912D
:1051E000FF90EF900895DF93CF93CDB7DEB7289768
:1051F0000FB6F894DEBF0FBECDBF9E838D83788738
:105200006F838D819E819C838B831982EB81FC81CE
:1052100081A58A83EB81FC8182E081A7EB81FC81FF
:1052200085A196A1A7A1B0A50196A11DB11DEB81F5
:10523000FC8185A396A3A7A3B0A78A81813009F03A
:105240004FC080915806882361F58B819C8102961E
:105250000E949007EB81FC81968980914E06891708
:1052600028F4EB81FC81868980934E06EB81FC81DA
:105270008689282F30E0C901880F991F880F991F50
:10528000880F991F820F931FAC01475A594F8B818A
:105290009C819C012E5F3F4FCA01B9010E94E0062C
:1052A0000AC08B819C819C01245F3F4F83E996E07B
:1052B000B9010E94E006EB81FC819689E0914806E5
:1052C000F09149068689891758F48F81988500974F
:1052D00021F0EF81F88581E0808381E080935106A1
:1052E00028960FB6F894DEBF0FBECDBFCF91DF91E9
:1052F0000895DF93CF93CDB7DEB727970FB6F89415
:10530000DEBF0FBECDBF9D838C838C819D810097B6
:1053100039F480914806909149069F838E8304C09A
:105320008C819D819F838E838E819F819B838A83C5
:105330000FB6F8940F92EA81FB8181A5823031F497
:10534000EA81FB8111A681E0898301C019820F9057
:105350000FBE898127960FB6F894DEBF0FBECDBF72
:10536000CF91DF910895DF93CF93CDB7DEB7279725
:105370000FB6F894DEBF0FBECDBF9E838D836F83C3
:1053800080914C0690914D069A83898380914806BE
:105390009091490602960E9490078D819E812FEF81
:1053A0008F3F920781F48F81882369F080914806AE
:1053B000909149069C012E5F3F4F85EA96E0B90126
:1053C0000E94E00643C029813A818D819E81820F2F
:1053D000931F9C838B83E0914806F09149068B8153
:1053E0009C81938382832B813C8189819A812817B8
:1053F000390770F4809191069091920620914806A9
:10540000309149062E5F3F4FB9010E9424071EC00C
:1054100040918F06509190068091480690914906E0
:105420009C012E5F3F4FCA01B9010E9424072091C1
:105430005406309155068B819C818217930730F476
:105440008B819C81909355068093540627960FB6C6
:10545000F894DEBF0FBECDBFCF91DF910895FB0161
:10546000DC0102C001900D9241505040D8F70895E0
:10547000DC0101C06D9341505040E0F70895F8946D
:02548000FFCF5C
:0654820049444C45000006
:00000001FF
