:100000000C942A000C940A100C9447000C9447009E
:100010000C9447000C9447000C9447000C94470044
:100020000C9447000C9447000C9432110C94470038
:100030000C9447000C9447000C9447000C94470024
:100040000C9447000C9447000C9447000C94470014
:100050000C94470011241FBECFE5D8E0DEBFCDBF12
:1000600010E0A8E6B0E001C01D92A137B107E1F7AA
:1000700010E0A0E6B0E0E6E4F4E202C005900D92E4
:10008000A836B107D9F70E9465110C9421120C947F
:100090000000EF92FF920F931F937B018C0120E0F1
:1000A00030E040E05FE40E94F50388238CF0C80153
:1000B000B70120E030E040E05FE40E94C1010E940F
:1000C00055049B01AC01205030404040504806C0D0
:1000D000C801B7010E9455049B01AC01B901CA01D6
:1000E0001F910F91FF90EF900895A0E0B0E0EBE733
:1000F000F0E00C94EA11DC012B01FA019C919230A2
:1001000008F439C1EB018881823008F433C194309E
:1001100069F4843009F02FC111969C91119789815F
:10012000981709F428C1A0E6B0E025C1843009F48D
:1001300021C18230A9F4923009F01DC19A01AD01AC
:1001400088E0EA010990AE01E90109929E0181501F
:10015000C1F7E201898111969C918923818308C1AD
:10016000923009F407C112962D903C901397EB0141
:100170008A819B811496AD90BD90CD90DC901797AD
:10018000EC80FD800E811F819101281B390BB90184
:1001900037FF04C066277727621B730B6032710537
:1001A0000CF061C0121613066CF537014801062EDB
:1001B00004C096948794779467940A94D2F721E0C8
:1001C00030E040E050E004C0220F331F441F551FB1
:1001D0006A95D2F721503040404050402E213F21B7
:1001E00040235123211531054105510521F021E01E
:1001F00030E040E050E079018A01E628F72808293C
:1002000019293CC0232BD1F1260E371E350146019A
:10021000062E04C096948794779467940A94D2F734
:1002200021E030E040E050E004C0220F331F441FC3
:10023000551F6A95D2F721503040404050402A2146
:100240003B214C215D21211531054105510521F04E
:1002500021E030E040E050E059016A01A628B728CB
:10026000C828D9280BC0821593052CF01C01AA249C
:10027000BB24650103C0EE24FF24870111969C91E5
:10028000D20111968C91981709F445C0992339F041
:10029000A80197012A193B094C095D0906C0A6016E
:1002A00095012E193F09400B510B57FD08C01182D3
:1002B0003382228224833583468357831DC081E0A5
:1002C00081833382228288279927DC01821B930B4A
:1002D000A40BB50B84839583A683B7830DC0220F2F
:1002E000331F441F551F24833583468357838281E0
:1002F000938101979383828324813581468157813D
:10030000DA01C9010197A109B1098F5F9F4FAF4F72
:10031000BF4328F30BC0918333822282EA0CFB1C7B
:100320000C1D1D1DE482F5820683178383E0808304
:10033000248135814681578157FF1AC0C901AA27F8
:1003400097FDA095BA2F81709070A070B0705695EF
:10035000479537952795822B932BA42BB52B848318
:100360009583A683B7838281938101969383828349
:10037000DF0101C0D201CD01CDB7DEB7E2E10C94BF
:100380000612A0E2B0E0E7ECF1E00C94F61169830C
:100390007A838B839C832D833E834F835887E9E048
:1003A000EE2EF12CEC0EFD1ECE010196B7010E943F
:1003B0007E058E010F5E1F4FCE010596B8010E948B
:1003C0007E058A8991E089278A8BC701B801AE0131
:1003D000475E5F4F0E9475000E94A904A096E6E068
:1003E0000C941212A0E2B0E0E8EFF1E00C94F611E8
:1003F00069837A838B839C832D833E834F835887C5
:10040000F9E0EF2EF12CEC0EFD1ECE010196B701A6
:100410000E947E058E010F5E1F4FCE010596B8012A
:100420000E947E05C701B801AE01475E5F4F0E9482
:1004300075000E94A904A096E6E00C941212A0E2B6
:10044000B0E0E5E2F2E00C94EA1169837A838B83F1
:100450009C832D833E834F835887CE010196BE0136
:10046000675F7F4F0E947E05CE010596BE016F5EDD
:100470007F4F0E947E059985923088F0898982306D
:10048000C8F0943019F4823051F404C0843029F457
:10049000923081F480E690E0C6C0923049F420E0CA
:1004A0009A858A89981321E02A87CE010996BBC0D4
:1004B000823049F420E09A858A89981321E02A8BBA
:1004C000CE014196B0C02D843E844F8458886D88FB
:1004D0007E888F88988CEE24FF248701AA24BB2471
:1004E000650140E050E060E070E0E0E0F0E0C10174
:1004F00081709070892BE9F0E60CF71C081D191D1E
:100500009A01AB012A0D3B1D4C1D5D1D80E090E062
:10051000A0E0B0E0E614F7040805190520F481E036
:1005200090E0A0E0B0E0BA01A901480F591F6A1F8E
:100530007B1FAA0CBB1CCC1CDD1C97FE08C081E0F5
:1005400090E0A0E0B0E0A82AB92ACA2ADB2A3196B6
:10055000E032F10549F0660C771C881C991C569412
:10056000479437942794C3CFFA85EA892B893C892D
:100570008B859C85280F391F2E5F3F4F17C0CA01FE
:1005800081709070892B61F016950795F794E79428
:1005900080E090E0A0E0B0E8E82AF92A0A2B1B2BC3
:1005A00076956795579547952F5F3F4F77FDE7CF36
:1005B0000CC0440F551F661F771F17FD4160EE0CDE
:1005C000FF1C001F111F21503040403090E05907A0
:1005D00090E0690790E4790760F32B8F3C8FDB0193
:1005E000CA018F779070A070B07080349105A1051A
:1005F000B10561F447FD0AC0E114F10401051105DC
:1006000029F0405C5F4F6F4F7F4F40781A8EFE1786
:1006100011F081E08A8F4D8F5E8F6F8F78A383E01A
:10062000898FCE0149960E94A904A096E2E10C941C
:100630000612A8E1B0E0EFE1F3E00C94F211698357
:100640007A838B839C832D833E834F835887B9E0C5
:10065000EB2EF12CEC0EFD1ECE010196B7010E948F
:100660007E058E010F5E1F4FCE010596B8010E94D8
:100670007E052985223008F47EC03989323010F495
:10068000B8017CC08A859A8989278A87243011F02D
:10069000223031F4231709F06EC060E670E06EC0BE
:1006A000343039F41D861E861F86188A1C861B86E8
:1006B00004C0323021F484E08987B7015FC02B8504
:1006C0003C858B899C89281B390B3C872B87ED84C3
:1006D000FE840F851889AD88BE88CF88D88CEA142F
:1006E000FB040C051D0540F4EE0CFF1C001F111F40
:1006F000215030403C872B8720E030E040E050E044
:1007000080E090E0A0E0B0E460E070E0EA14FB0478
:100710000C051D0540F0282B392B4A2B5B2BEA18C2
:10072000FB080C091D09B695A79597958795EE0CC2
:10073000FF1C001F111F6F5F7F4F6F31710531F775
:10074000DA01C9018F779070A070B0708034910584
:10075000A105B10561F427FD0AC0E114F10401050A
:10076000110529F0205C3F4F4F4F5F4F20782D87B8
:100770003E874F87588BBE01675F7F4FCB010E943A
:10078000A9046896EAE00C940E12A8E1B0E0EBEC44
:10079000F3E00C94F61169837A838B839C832D8319
:1007A0003E834F83588789E0E82EF12CEC0EFD1E26
:1007B000CE010196B7010E947E058E010F5E1F4F8C
:1007C000CE010596B8010E947E058985823040F0F1
:1007D0008989823028F0C701B8010E94F60501C05E
:1007E0008FEF6896E6E00C941212A8E1B0E0EBEF10
:1007F000F3E00C94F61169837A838B839C832D83B9
:100800003E834F83588789E0E82EF12CEC0EFD1EC5
:10081000CE010196B7010E947E058E010F5E1F4F2B
:10082000CE010596B8010E947E058985823040F090
:100830008989823028F0C701B8010E94F60501C0FD
:100840008FEF6896E6E00C941212A8E1B0E0EBE2BC
:10085000F4E00C94F61169837A838B839C832D8357
:100860003E834F83588789E0E82EF12CEC0EFD1E65
:10087000CE010196B7010E947E058E010F5E1F4FCB
:10088000CE010596B8010E947E058985823040F030
:100890008989823028F0C701B8010E94F60501C09D
:1008A00081E06896E6E00C941212ACE0B0E0EBE573
:1008B000F4E00C94FA1169837A838B839C83CE01D4
:1008C0000196BE016B5F7F4F0E947E058D81823055
:1008D00061F1823050F1843021F48E81882351F10E
:1008E0002EC02F81388537FD20C06E812F31310514
:1008F0001CF06623F9F023C08EE190E0821B930B7D
:1009000029853A854B855C8504C056954795379572
:1009100027958A95D2F76623B1F05095409530958A
:1009200021953F4F4F4F5F4F0EC020E030E040E039
:1009300050E009C02FEF3FEF4FEF5FE704C020E02A
:1009400030E040E050E8B901CA012C96E2E00C9496
:100950001612DF92EF92FF920F931F93FC01E48037
:10096000F58006811781D1808081823048F480E053
:1009700090E0A0E1B0E0E82AF92A0A2B1B2BA5C0E1
:10098000843009F49FC0823021F4EE24FF248701D3
:1009900005C0E114F1040105110519F4E0E0F0E0EF
:1009A00096C0628173819FEF623879070CF05BC05B
:1009B00022E83FEF261B370B2A3131052CF020E0CF
:1009C00030E040E050E02AC0B801A701022E04C088
:1009D00076956795579547950A94D2F781E090E010
:1009E000A0E0B0E004C0880F991FAA1FBB1F2A9582
:1009F000D2F70197A109B1098E219F21A023B1232C
:100A00000097A105B10521F081E090E0A0E0B0E001
:100A10009A01AB01282B392B4A2B5B2BDA01C90138
:100A20008F779070A070B07080349105A105B105EA
:100A300039F427FF09C0205C3F4F4F4F5F4F04C080
:100A4000215C3F4F4F4F5F4FE0E0F0E02030A0E0EF
:100A50003A07A0E04A07A0E45A0710F0E1E0F0E00E
:100A600079018A0127C06038710564F5FB01E158FE
:100A7000FF4FD801C7018F779070A070B07080349D
:100A80009105A105B10539F4E7FE0DC080E490E0C1
:100A9000A0E0B0E004C08FE390E0A0E0B0E0E80E9A
:100AA000F91E0A1F1B1F17FF05C016950795F7941F
:100AB000E794319687E016950795F794E7948A9521
:100AC000D1F705C0EE24FF248701EFEFF0E06E2F91
:100AD000679566276795902F9F77D794DD24D794E5
:100AE0008E2F8695492F462B582F5D29B701CA01B5
:100AF0001F910F91FF90EF90DF900895FC01DB01B3
:100B0000408151812281622F6F7770E0221F22275E
:100B1000221F9381892F880F822B282F30E0991F65
:100B20009927991F11969C93119721153105A9F5C5
:100B3000411551056105710511F482E037C082E865
:100B40009FEF13969C938E9312979A01AB0167E0E7
:100B5000220F331F441F551F6A95D1F783E08C93F2
:100B60000DC0220F331F441F551F12968D919C916B
:100B70001397019713969C938E931297203080E0E1
:100B8000380780E0480780E4580758F314962D93FF
:100B90003D934D935C93179708952F3F310579F45A
:100BA000411551056105710519F484E08C93089590
:100BB00064FF03C081E08C9312C01C9210C02F57B9
:100BC000304013963C932E93129783E08C9387E0EA
:100BD000440F551F661F771F8A95D1F770641496CE
:100BE0004D935D936D937C93179708951F93DC014C
:100BF000FB019C91923008F447C08081823008F458
:100C000043C0943051F411961C91843099F5818140
:100C1000682F70E0611B71093FC0843021F0923071
:100C200031F48230B9F18181882389F12DC0119688
:100C30001C9111978230F1F081811817D9F4129626
:100C40002D913C911397828193818217930794F0A1
:100C500028173907BCF014968D919D910D90BC9189
:100C6000A02D2481358146815781281739074A07ED
:100C70005B0718F4112341F00AC082179307A407F9
:100C8000B50740F4112319F061E070E005C06FEF83
:100C90007FEF02C060E070E0CB011F910895DF9309
:100CA000CF93CDB7DEB769970FB6F894DEBF0FBE0E
:100CB000CDBF898F81E061E041E00E94160D81E0A7
:100CC00062E040E00E94160D898D982F917083E0BC
:100CD00061E0492F0E94160D898D8695982F91709D
:100CE00083E062E0492F0E94160D898D86958695D6
:100CF000982F917083E064E0492F0E94160D898D32
:100D0000869586958695982F917083E068E0492FA7
:100D10000E94160D898D82958F70982F917083E0B7
:100D200060E1492F0E94160D898D82958695877006
:100D3000982F917083E060E2492F0E94160D898DF3
:100D40008295869586958370982F917083E060E4F4
:100D5000492F0E94160D898D982F991F9927991F49
:100D600083E060E8492F0E94160D81E064E040E0D6
:100D70000E94160D80E090E0A8E4B2E48D8B9E8B7B
:100D8000AF8BB88F6D897E898F89988D2BEA3AEA6F
:100D90004AE250E40E941F02DC01CB01898B9A8B4E
:100DA000AB8BBC8B69897A898B899C8920E030E088
:100DB00040E85FE30E94250488231CF481E0888BCF
:100DC00091C069897A898B899C8920E030E04FE75E
:100DD00053E40E94C50318160CF07BC06D897E8910
:100DE0008F89988D20E030E04AE754E40E9419038F
:100DF000DC01CB018C879D87AE87BF876C857D85A5
:100E00008E859F8520E030E04AEF54E40E941F0267
:100E1000DC01CB0188879987AA87BB87688579859C
:100E20008A859B8520E030E040E85FE30E9425044E
:100E300088232CF481E090E09F838E833FC06885F7
:100E400079858A859B8520E03FEF4FE757E40E9434
:100E5000C50318164CF56C857D858E859F8520E031
:100E600030E040E251E40E941F02DC01CB01BC01F2
:100E7000CD010E944900DC01CB019F838E830FC00E
:100E800088EC90E09D838C838C819D810197F1F7A4
:100E90009D838C838E819F8101979F838E838E811A
:100EA0009F81009769F724C0688579858A859B852D
:100EB0000E944900DC01CB019F838E838E819F813C
:100EC0009B838A838A819B810197F1F79B838A8325
:100ED0000FC069897A898B899C890E944900DC014D
:100EE000CB01888B8889898389818A95F1F78983E9
:100EF00081E064E041E00E94160D69960FB6F89417
:100F0000DEBF0FBECDBFCF91DF910895DF93CF93AA
:100F1000CDB7DEB769970FB6F894DEBF0FBECDBF71
:100F2000898F81E061E040E00E94160D81E062E07F
:100F300040E00E94160D898D982F917083E061E04A
:100F4000492F0E94160D898D8695982F917083E008
:100F500062E0492F0E94160D898D86958695982FFF
:100F6000917083E064E0492F0E94160D898D86956B
:100F700086958695982F917083E068E0492F0E94AE
:100F8000160D898D82958F70982F917083E060E1A6
:100F9000492F0E94160D898D829586958770982F0E
:100FA000917083E060E2492F0E94160D898D829531
:100FB000869586958370982F917083E060E4492F21
:100FC0000E94160D898D982F991F9927991F83E0EC
:100FD00060E8492F0E94160D81E064E040E00E9425
:100FE000160D80E090E0A8E4B2E48D8B9E8BAF8B71
:100FF000B88F6D897E898F89988D2BEA3AEA4AE20B
:1010000050E40E941F02DC01CB01898B9A8BAB8BD1
:10101000BC8B69897A898B899C8920E030E040E823
:101020005FE30E94250488231CF481E0888B91C033
:1010300069897A898B899C8920E030E04FE753E405
:101040000E94C50318160CF07BC06D897E898F89BC
:10105000988D20E030E04AE754E40E941903DC0157
:10106000CB018C879D87AE87BF876C857D858E85FC
:101070009F8520E030E04AEF54E40E941F02DC012B
:10108000CB0188879987AA87BB87688579858A85F8
:101090009B8520E030E040E85FE30E942504882340
:1010A0002CF481E090E09F838E833FC06885798532
:1010B0008A859B8520E03FEF4FE757E40E94C503F8
:1010C00018164CF56C857D858E859F8520E030E077
:1010D00040E251E40E941F02DC01CB01BC01CD01C2
:1010E0000E944900DC01CB019F838E830FC088ECF6
:1010F00090E09D838C838C819D810197F1F79D8386
:101100008C838E819F8101979F838E838E819F81A7
:10111000009769F724C0688579858A859B850E9438
:101120004900DC01CB019F838E838E819F819B834D
:101130008A838A819B810197F1F79B838A830FC001
:1011400069897A898B899C890E944900DC01CB01DD
:10115000888B8889898389818A95F1F7898381E0E1
:1011600064E041E00E94160D69960FB6F894DEBF68
:101170000FBECDBFCF91DF9108950F931F93DF93E3
:10118000CF93CDB7DEB7C654D0400FB6F894DEBFCC
:101190000FBECDBF81E067E041E00E94EF0B83E02E
:1011A0006FEF41E00E94EF0B81E064E041E00E94BC
:1011B000160DFE01ED5BFF4F80E090E0A8E4B2E485
:1011C00080839183A283B3838E01015C1F4FFE0154
:1011D000ED5BFF4F608171818281938120E030E07F
:1011E0004AEF54E40E941F02DC01CB01F801808326
:1011F0009183A283B383FE01FF9660817181828116
:10120000938120E030E040E85FE30E9425048823DA
:101210002CF481E090E09EAF8DAF46C0FE01FF96BA
:10122000608171818281938120E03FEF4FE757E435
:101230000E94C503181664F5FE01ED5BFF4F608147
:1012400071818281938120E030E040E251E40E948C
:101250001F02DC01CB01BC01CD010E944900DC0171
:10126000CB019EAF8DAF0FC088EC90E09CAF8BAFF1
:101270008BAD9CAD0197F1F79CAF8BAF8DAD9EAD63
:1012800001979EAF8DAF8DAD9EAD009769F716C0EB
:10129000FE01FF9660817181828193810E944900E5
:1012A000DC01CB019EAF8DAF8DAD9EAD9AAF89AF06
:1012B00089AD9AAD0197F1F79AAF89AF8CE30E949F
:1012C000860780E090E0A0E8BFE38DAB9EABAFABBC
:1012D000B8AF6DA97EA98FA998AD20E030E04AEFA4
:1012E00054E40E941F02DC01CB0189AB9AABABAB8B
:1012F000BCAB69A97AA98BA99CA920E030E040E8A1
:101300005FE30E94250488232CF481E090E098ABF1
:101310008FA73FC069A97AA98BA99CA920E03FEFBC
:101320004FE757E40E94C50318164CF56DA97EA936
:101330008FA998AD20E030E040E251E40E941F0206
:10134000DC01CB01BC01CD010E944900DC01CB01D5
:1013500098AB8FA70FC088EC90E09EA78DA78DA5B6
:101360009EA50197F1F79EA78DA78FA598A9019734
:1013700098AB8FA78FA598A9009769F714C069A9A2
:101380007AA98BA99CA90E944900DC01CB0198ABEA
:101390008FA78FA598A99CA78BA78BA59CA5019724
:1013A000F1F79CA78BA78FE00E94860780E090E072
:1013B000A0E8BFE38FA398A7A9A7BAA76FA178A5B4
:1013C00089A59AA520E030E04AEF54E40E941F026C
:1013D000DC01CB018BA39CA3ADA3BEA36BA17CA11D
:1013E0008DA19EA120E030E040E85FE30E9425044B
:1013F00088232CF481E090E09AA389A33FC06BA1DD
:101400007CA18DA19EA120E03FEF4FE757E40E9411
:10141000C50318164CF56FA178A589A59AA520E0FB
:1014200030E040E251E40E941F02DC01CB01BC012C
:10143000CD010E944900DC01CB019AA389A30FC012
:1014400088EC90E098A38F8F8F8D98A10197F1F78A
:1014500098A38F8F89A19AA101979AA389A389A1A3
:101460009AA1009769F714C06BA17CA18DA19EA1E0
:101470000E944900DC01CB019AA389A389A19AA10A
:101480009E8F8D8F8D8D9E8D0197F1F79E8F8D8F05
:1014900081E00E94860780E090E0A0E0B0E4898FC0
:1014A0009A8FAB8FBC8F698D7A8D8B8D9C8D20E050
:1014B00030E04AEF54E40E941F02DC01CB018D8B27
:1014C0009E8BAF8BB88F6D897E898F89988D20E038
:1014D00030E040E85FE30E94250488232CF481E09B
:1014E00090E09C8B8B8B3FC06D897E898F89988D16
:1014F00020E03FEF4FE757E40E94C50318164CF574
:10150000698D7A8D8B8D9C8D20E030E040E251E436
:101510000E941F02DC01CB01BC01CD010E944900E9
:10152000DC01CB019C8B8B8B0FC088EC90E09A8BFD
:10153000898B89899A890197F1F79A8B898B8B8995
:101540009C8901979C8B8B8B8B899C89009769F771
:1015500014C06D897E898F89988D0E944900DC01B5
:10156000CB019C8B8B8B8B899C89988B8F878F85EC
:1015700098890197F1F7988B8F8786E00E948607FC
:1015800080E090E0A0E8BFE38B879C87AD87BE87B3
:101590006B857C858D859E8520E030E04AEF54E4A4
:1015A0000E941F02DC01CB018F839887A987BA872D
:1015B0006F81788589859A8520E030E040E85FE397
:1015C0000E94250488232CF481E090E09E838D8383
:1015D0003FC06F81788589859A8520E03FEF4FE78E
:1015E00057E40E94C50318164CF56B857C858D85E4
:1015F0009E8520E030E040E251E40E941F02DC01C1
:10160000CB01BC01CD010E944900DC01CB019E83CE
:101610008D830FC088EC90E09C838B838B819C81B1
:101620000197F1F79C838B838D819E8101979E8327
:101630008D838D819E81009769F714C06F817885B5
:1016400089859A850E944900DC01CB019E838D83A8
:101650008D819E819A83898389819A810197F1F78F
:101660009A838983CA5BDF4F0FB6F894DEBF0FBE43
:10167000CDBFCF91DF911F910F910895DF93CF934D
:101680000F92CDB7DEB7898389810E944F06898189
:101690008823E9F70F90CF91DF910895DF93CF93DF
:1016A00000D0CDB7DEB79A8389830AC0E981FA8179
:1016B00080810E944F0689819A8101969A8389834D
:1016C000E981FA818081882389F70F900F90CF916B
:1016D000DF910895DF93CF9300D000D0CDB7DEB770
:1016E00089836A838981282F30E03C832B838B8117
:1016F0009C81009731F02B813C812130310531F004
:1017000009C08A8180680E94860704C08A81806C33
:101710000E9486070F900F900F900F90CF91DF914E
:101720000895DF93CF93CDB7DEB780E40E9486079C
:1017300080E00E944F068AE00E944F068FE10E94DF
:101740004F068FE10E944F068FE10E944F0687E00F
:101750000E944F0684E00E944F0680E00E944F06E0
:1017600080E80E948607CF91DF910895DF93CF93A1
:10177000CDB7DEB780E00E944F06CF91DF9108958C
:10178000DF93CF93CDB7DEB788E40E94860784E06D
:101790000E944F068EE00E944F068EE00E944F0688
:1017A0008EE00E944F068EE00E944F068FE10E945D
:1017B0004F0684E00E944F0680E00E944F0680ECB6
:1017C0000E948607CF91DF910895DF93CF93CDB725
:1017D000DEB781E00E944F06CF91DF910895DF933D
:1017E000CF93CDB7DEB72D970FB6F894DEBF0FBEFF
:1017F000CDBF89836A834B838981282F30E03D8761
:101800002C878C859D858230910509F454C02C85E8
:101810003D852330310534F48C859D8581309105DB
:1018200071F0FBC02C853D852330310509F47FC064
:101830008C859D858430910509F4B5C0EEC08B81FF
:10184000282F30E03B872A878A859B858230910547
:10185000A1F02A853B8523303105D1F08A859B850F
:101860008130910509F0D9C0AAE3B0E0EAE3F0E0E5
:1018700090818A81892B8C93D0C0AAE3B0E0EAE3FF
:10188000F0E08081982F8A81809589238C93C5C050
:10189000AAE3B0E0EAE3F0E08081982F8A818095A6
:1018A00089238C93ABE3B0E0EBE3F0E090818A8195
:1018B000892B8C93B2C08B81282F30E03987288701
:1018C0008885998582309105A1F028853985233056
:1018D0003105D1F0888599858130910509F09DC049
:1018E000A7E3B0E0E7E3F0E090818A81892B8C9355
:1018F00094C0A7E3B0E0E7E3F0E08081982F8A810D
:10190000809589238C9389C0A7E3B0E0E7E3F0E0FA
:101910008081982F8A81809589238C93A8E3B0E0F9
:10192000E8E3F0E090818A81892B8C9376C08B81EB
:10193000282F30E03F832E838E819F818230910556
:10194000A1F02E813F8123303105D1F08E819F811E
:101950008130910509F061C0A4E3B0E0E4E3F0E078
:1019600090818A81892B8C9358C0A4E3B0E0E4E392
:10197000F0E08081982F8A81809589238C934DC0D7
:10198000A4E3B0E0E4E3F0E08081982F8A818095C1
:1019900089238C93A5E3B0E0E5E3F0E090818A81B0
:1019A000892B8C933AC08B81282F30E03D832C8388
:1019B0008C819D818230910599F02C813D8123306D
:1019C0003105C9F08C819D818130910531F5A1E30C
:1019D000B0E0E1E3F0E090818A81892B8C931DC017
:1019E000A1E3B0E0E1E3F0E08081982F8A81809567
:1019F00089238C9312C0A1E3B0E0E1E3F0E08081A1
:101A0000982F8A81809589238C93A2E3B0E0E2E34A
:101A1000F0E090818A81892B8C932D960FB6F894F3
:101A2000DEBF0FBECDBFCF91DF910895DF93CF937F
:101A3000CDB7DEB72D970FB6F894DEBF0FBECDBF82
:101A400089836A834B838981282F30E03D872C87E7
:101A50008C859D8582309105D9F12C853D8523307B
:101A6000310534F48C859D858130910571F096C0E7
:101A70002C853D852330310509F44DC08C859D852D
:101A80008430910509F469C089C08B81282F30E02A
:101A90003B872A878A859B85009779F02A853B8535
:101AA0002130310509F07AC0ABE3B0E0EBE3F0E0C0
:101AB00090818A81892B8C9371C0ABE3B0E0EBE31A
:101AC000F0E08081982F8A81809589238C9366C06D
:101AD0008B81282F30E03987288788859985009762
:101AE00079F0288539852130310509F057C0A8E300
:101AF000B0E0E8E3F0E090818A81892B8C934EC0BE
:101B0000A8E3B0E0E8E3F0E08081982F8A81809537
:101B100089238C9343C08B81282F30E03F832E8311
:101B20008E819F81009771F02E813F812130310598
:101B3000A9F5A5E3B0E0E5E3F0E090818A81892B87
:101B40008C932CC0A5E3B0E0E5E3F0E08081982F12
:101B50008A81809589238C9321C08B81282F30E046
:101B60003D832C838C819D81009771F02C813D8178
:101B70002130310599F4A2E3B0E0E2E3F0E0908196
:101B80008A81892B8C930AC0A2E3B0E0E2E3F0E003
:101B90008081982F8A81809589238C932D960FB60A
:101BA000F894DEBF0FBECDBFCF91DF910895DF93D4
:101BB000CF9300D000D0CDB7DEB789836A83898107
:101BC000282F30E03C832B838B819C8182309105D0
:101BD000F9F02B813C812330310534F48B819C81D9
:101BE0008130910561F02EC02B813C81233031057D
:101BF000C1F08B819C8184309105E1F023C0ABE37F
:101C0000B0E0EBE3F0E090818A81892B8C931AC0DD
:101C1000A8E3B0E0E8E3F0E090818A81892B8C931F
:101C200011C0A5E3B0E0E5E3F0E090818A81892B63
:101C30008C9308C0A2E3B0E0E2E3F0E090818A81F7
:101C4000892B8C930F900F900F900F90CF91DF9175
:101C50000895DF93CF9300D000D00F92CDB7DEB7B9
:101C60008A836B8319828A81282F30E03D832C83FD
:101C70008C819D818230910511F12C813D81233031
:101C8000310534F48C819D818130910561F03AC039
:101C90002C813D8123303105F1F08C819D81843090
:101CA000910529F12FC0E9E3F0E090818B81892330
:101CB000882319F081E0898325C0198223C0E6E3D7
:101CC000F0E090818B818923882319F081E089835A
:101CD00019C0198217C0E3E3F0E090818B8189235A
:101CE000882319F081E089830DC019820BC0E0E3DD
:101CF000F0E090818B818923882319F081E089832A
:101D000001C0198289810F900F900F900F900F9052
:101D1000CF91DF910895DF93CF93CDB7DEB72A97A8
:101D20000FB6F894DEBF0FBECDBF89836A83898169
:101D3000282F30E03A87298789859A858130910557
:101D400009F466C029853A852230310509F4BBC003
:101D500089859A85009709F0D4C08A81282F30E0C0
:101D600038872F838F8198858130910521F12F81CC
:101D70003885223031052CF48F819885009761F0E9
:101D8000C0C02F8138852230310521F18F8198859F
:101D90008330910571F1B5C0A5E5B0E0E5E5F0E06F
:101DA000808181608C93A5E5B0E0E5E5F0E080817D
:101DB00082608C93A6C0A5E5B0E0E5E5F0E0808107
:101DC0008E7F8C93A5E5B0E0E5E5F0E08081826050
:101DD0008C9397C0A5E5B0E0E5E5F0E080818160F7
:101DE0008C93A5E5B0E0E5E5F0E080818D7F8C93F4
:101DF00088C0A5E5B0E0E5E5F0E080818E7F8C93BA
:101E0000A5E5B0E0E5E5F0E080818D7F8C9379C0B9
:101E10008A81282F30E03E832D838D819E81813001
:101E2000910521F12D813E81223031052CF48D81E7
:101E30009E81009761F065C02D813E812230310581
:101E400021F18D819E818330910571F15AC0A5E504
:101E5000B0E0E5E5F0E0808184608C93A5E5B0E03A
:101E6000E5E5F0E0808188608C934BC0A5E5B0E0AB
:101E7000E5E5F0E080818B7F8C93A5E5B0E0E5E5BA
:101E8000F0E0808188608C933CC0A5E5B0E0E5E59A
:101E9000F0E0808184608C93A5E5B0E0E5E5F0E0BA
:101EA0008081877F8C932DC0A5E5B0E0E5E5F0E06B
:101EB00080818B7F8C93A5E5B0E0E5E5F0E0808143
:101EC000877F8C931EC08A81282F30E03C832B8330
:101ED0008B819C81009731F02B813C812130310531
:101EE00049F00FC0A4E5B0E0E4E5F0E08081806453
:101EF0008C9307C0A4E5B0E0E4E5F0E080818F7B3F
:101F00008C932A960FB6F894DEBF0FBECDBFCF914B
:101F1000DF910895DF93CF9300D00F92CDB7DEB756
:101F200089838981282F30E03B832A838A819B81A2
:101F30008130910589F02A813B8122303105A1F061
:101F40008A819B810097B9F4ABE5B0E0EBE5F0E066
:101F5000808180648C930FC0ABE5B0E0EBE5F0E0EE
:101F6000808180688C9307C0ABE5B0E0EBE5F0E0E2
:101F7000808180628C930F900F900F90CF91DF91B2
:101F80000895DF93CF9300D00F92CDB7DEB789834A
:101F90008981282F30E03B832A838A819B8181308D
:101FA000910589F02A813B8122303105A1F08A8197
:101FB0009B810097B9F4ABE5B0E0EBE5F0E0808100
:101FC0008F7B8C930FC0ABE5B0E0EBE5F0E0808158
:101FD0008F778C9307C0ABE5B0E0EBE5F0E0808154
:101FE0008F7D8C930F900F900F90CF91DF9108957C
:101FF000DF93CF9300D0CDB7DEB79A8389838981F1
:102000009A8190936900809368000F900F90CF9110
:10201000DF9108951F920F920FB60F9211242F9304
:102020003F934F935F936F937F938F939F93AF9360
:10203000BF93EF93FF93DF93CF93CDB7DEB780913C
:10204000680090916900009729F0E0916800F09194
:1020500069000995CF91DF91FF91EF91BF91AF9109
:102060009F918F917F916F915F914F913F912F91B0
:102070000F900FBE0F901F901895DF93CF93CDB7A1
:10208000DEB7AFE5B0E0EFE5F0E0808180688C93EB
:10209000CF91DF910895DF93CF93CDB7DEB7AFE552
:1020A000B0E0EFE5F0E080818F778C93CF91DF9106
:1020B0000895DF93CF93CDB7DEB7A3E5B0E0E3E5B6
:1020C000F0E0808188608C93A3E5B0E0E3E5F0E088
:1020D000808180648C93A3E5B0E0E3E5F0E080814B
:1020E00080628C93A3E5B0E0E3E5F0E080818F7E31
:1020F0008C93ECE5F0E084E68083A3E5B0E0E3E5D3
:10210000F0E0808182608C93A3E5B0E0E3E5F0E04D
:1021100080818E7F8C93A3E5B0E0E3E5F0E08081E1
:102120008B7F8C93CF91DF910895DF93CF93CDB7C1
:10213000DEB7AFE4B0E0EFE4F0E080818E7F8C9317
:10214000AFE4B0E0EFE4F0E080818D7F8C93AEE40B
:10215000B0E0EEE4F0E08081877F8C93AEE4B0E005
:10216000EEE4F0E080818F7E8C93AEE4B0E0EEE4AC
:10217000F0E080818E7F8C93AEE4B0E0EEE4F0E09E
:10218000808182608C93AFE4B0E0EFE4F0E0808186
:102190008B7F8C93CF91DF910895DF93CF93CDB751
:1021A000DEB7ECE4F0E080819181CF91DF9108957A
:1021B000DF93CF9300D0CDB7DEB79A838983ECE469
:1021C000F0E089819A81918380830F900F90CF9165
:1021D000DF910895DF93CF9300D0CDB7DEB79A8318
:1021E0008983A3E5B0E0E3E5F0E0808188608C932B
:1021F000A3E5B0E0E3E5F0E0808180648C93A3E5A3
:10220000B0E0E3E5F0E080818F7E8C93A3E5B0E061
:10221000E3E5F0E080818F7D8C930F900F90CF915C
:10222000DF910895DF93CF930F92CDB7DEB7898307
:10223000ECE5F0E0898180830F90CF91DF910895E4
:10224000DF93CF9300D0CDB7DEB79A83898389819E
:102250009A8190936B0080936A000F900F90CF91BA
:10226000DF9108951F920F920FB60F9211242F93B2
:102270003F934F935F936F937F938F939F93AF930E
:10228000BF93EF93FF93DF93CF93CDB7DEB78091EA
:102290006A0090916B00009729F0E0916A00F0913C
:1022A0006B000995CF91DF91FF91EF91BF91AF91B5
:1022B0009F918F917F916F915F914F913F912F915E
:1022C0000F900FBE0F901F901895DF93CF93CDB74F
:1022D000DEB782E068E041E00E94EF0B84E064E05A
:1022E00042E00E94EF0B8AEA91E10E94F80F0E94FF
:1022F000BD080E9495100E94591080E060E00E9485
:102300008B0E80E00E948A0F0E943D1080916D002C
:1023100090916E000097D1F380916F0090917000C2
:102320000097A1F380E060E00E946A0B81E60E94C2
:102330003E0B80916D0090916E000E944E0B81E0EB
:1023400060E00E946A0B80916F00909170000E9483
:102350004E0BDCCFDF93CF9300D0CDB7DEB78091AB
:102360006C008F5F80936C0080916C00813029F449
:1023700080E090E00E94D81028C080916C008230EC
:1023800059F40E94CD1090936E0080936D0080E010
:1023900061E00E948B0E19C080916C008330A9F41B
:1023A0000E94CD109A83898320916D0030916E0038
:1023B00089819A81821B930B9093700080936F00A8
:1023C00080E00E94C10F10926C000F900F90CF918F
:1023D000DF9108952F923F924F925F926F927F927A
:1023E0008F929F92AF92BF92CF92DF92EF92FF9225
:1023F0000F931F93CF93DF93CDB7DEB7CA1BDB0BD1
:102400000FB6F894DEBF0FBECDBF09942A88398875
:1024100048885F846E847D848C849B84AA84B9847C
:10242000C884DF80EE80FD800C811B81AA81B98188
:10243000CE0FD11D0FB6F894DEBF0FBECDBFED019C
:062440000895F894FFCF9F
:0824460000000000000000008E
:00000001FF
