:100000000C942A000C943F000C943F000C943F0089
:100010000C943F000C943F000C943F000C943F0064
:100020000C943F000C943F000C943F000C943F0054
:100030000C943F000C943F000C943F000C943F0044
:100040000C943F000C943F000C943F000C943F0034
:100050000C943F0011241FBECFE5D8E0DEBFCDBF1A
:1000600010E0A0E6B0E0E0E2F8E202C005900D92F8
:10007000AE37B107D9F70E940D0F0C940E140C94F3
:100080000000EF92FF920F931F937B018C0120E001
:1000900030E040E05FE40E94ED0388238CF0C8016B
:1000A000B70120E030E040E05FE40E94B9010E9427
:1000B0004D049B01AC01205030404040504806C0E8
:1000C000C801B7010E944D049B01AC01B901CA01EE
:1000D0001F910F91FF90EF900895A0E0B0E0E3E74B
:1000E000F0E00C94D713DC012B01FA019C919230C3
:1000F00008F439C1EB018881823008F433C19430AF
:1001000069F4843009F02FC111969C91119789816F
:10011000981709F428C1AAE6B0E025C1843009F493
:1001200021C18230A9F4923009F01DC19A01AD01BC
:1001300088E0EA010990AE01E90109929E0181502F
:10014000C1F7E201898111969C918923818308C1BD
:10015000923009F407C112962D903C901397EB0151
:100160008A819B811496AD90BD90CD90DC901797BD
:10017000EC80FD800E811F819101281B390BB90194
:1001800037FF04C066277727621B730B6032710547
:100190000CF061C0121613066CF537014801062EEB
:1001A00004C096948794779467940A94D2F721E0D8
:1001B00030E040E050E004C0220F331F441F551FC1
:1001C0006A95D2F721503040404050402E213F21C7
:1001D00040235123211531054105510521F021E02E
:1001E00030E040E050E079018A01E628F72808294C
:1001F00019293CC0232BD1F1260E371E35014601AB
:10020000062E04C096948794779467940A94D2F744
:1002100021E030E040E050E004C0220F331F441FD3
:10022000551F6A95D2F721503040404050402A2156
:100230003B214C215D21211531054105510521F05E
:1002400021E030E040E050E059016A01A628B728DB
:10025000C828D9280BC0821593052CF01C01AA24AC
:10026000BB24650103C0EE24FF24870111969C91F5
:10027000D20111968C91981709F445C0992339F051
:10028000A80197012A193B094C095D0906C0A6017E
:1002900095012E193F09400B510B57FD08C01182E3
:1002A0003382228224833583468357831DC081E0B5
:1002B00081833382228288279927DC01821B930B5A
:1002C000A40BB50B84839583A683B7830DC0220F3F
:1002D000331F441F551F24833583468357838281F0
:1002E000938101979383828324813581468157814D
:1002F000DA01C9010197A109B1098F5F9F4FAF4F83
:10030000BF4328F30BC0918333822282EA0CFB1C8B
:100310000C1D1D1DE482F5820683178383E0808314
:10032000248135814681578157FF1AC0C901AA2708
:1003300097FDA095BA2F81709070A070B0705695FF
:10034000479537952795822B932BA42BB52B848328
:100350009583A683B7838281938101969383828359
:10036000DF0101C0D201CD01CDB7DEB7E2E10C94CF
:10037000F313A0E2B0E0EFEBF1E00C94E313698338
:100380007A838B839C832D833E834F835887E9E058
:10039000EE2EF12CEC0EFD1ECE010196B7010E944F
:1003A00076058E010F5E1F4FCE010596B8010E94A3
:1003B00076058A8991E089278A8BC701B801AE0149
:1003C000475E5F4F0E946D000E94A104A096E6E088
:1003D0000C94FF13A0E2B0E0E0EFF1E00C94E31323
:1003E00069837A838B839C832D833E834F835887D5
:1003F000F9E0EF2EF12CEC0EFD1ECE010196B701B7
:100400000E9476058E010F5E1F4FCE010596B80142
:100410000E947605C701B801AE01475E5F4F0E949A
:100420006D000E94A104A096E6E00C94FF13A0E2E8
:10043000B0E0EDE1F2E00C94D71369837A838B830B
:100440009C832D833E834F835887CE010196BE0146
:10045000675F7F4F0E947605CE010596BE016F5EF5
:100460007F4F0E9476059985923088F08989823085
:10047000C8F0943019F4823051F404C0843029F467
:10048000923081F48AE690E0C6C0923049F420E0D0
:100490009A858A89981321E02A87CE010996BBC0E4
:1004A000823049F420E09A858A89981321E02A8BCA
:1004B000CE014196B0C02D843E844F8458886D880B
:1004C0007E888F88988CEE24FF248701AA24BB2481
:1004D000650140E050E060E070E0E0E0F0E0C10184
:1004E00081709070892BE9F0E60CF71C081D191D2E
:1004F0009A01AB012A0D3B1D4C1D5D1D80E090E073
:10050000A0E0B0E0E614F7040805190520F481E046
:1005100090E0A0E0B0E0BA01A901480F591F6A1F9E
:100520007B1FAA0CBB1CCC1CDD1C97FE08C081E005
:1005300090E0A0E0B0E0A82AB92ACA2ADB2A3196C6
:10054000E032F10549F0660C771C881C991C569422
:10055000479437942794C3CFFA85EA892B893C893D
:100560008B859C85280F391F2E5F3F4F17C0CA010E
:1005700081709070892B61F016950795F794E79438
:1005800080E090E0A0E0B0E8E82AF92A0A2B1B2BD3
:1005900076956795579547952F5F3F4F77FDE7CF46
:1005A0000CC0440F551F661F771F17FD4160EE0CEE
:1005B000FF1C001F111F21503040403090E05907B0
:1005C00090E0690790E4790760F32B8F3C8FDB01A3
:1005D000CA018F779070A070B07080349105A1052A
:1005E000B10561F447FD0AC0E114F10401051105EC
:1005F00029F0405C5F4F6F4F7F4F40781A8EFE1797
:1006000011F081E08A8F4D8F5E8F6F8F78A383E02A
:10061000898FCE0149960E94A104A096E2E10C9434
:10062000F313A8E1B0E0E7E1F3E00C94DF13698392
:100630007A838B839C832D833E834F835887B9E0D5
:10064000EB2EF12CEC0EFD1ECE010196B7010E949F
:1006500076058E010F5E1F4FCE010596B8010E94F0
:1006600076052985223008F47EC03989323010F4AD
:10067000B8017CC08A859A8989278A87243011F03D
:10068000223031F4231709F06EC06AE670E06EC0C4
:10069000343039F41D861E861F86188A1C861B86F8
:1006A00004C0323021F484E08987B7015FC02B8514
:1006B0003C858B899C89281B390B3C872B87ED84D3
:1006C000FE840F851889AD88BE88CF88D88CEA143F
:1006D000FB040C051D0540F4EE0CFF1C001F111F50
:1006E000215030403C872B8720E030E040E050E054
:1006F00080E090E0A0E0B0E460E070E0EA14FB0489
:100700000C051D0540F0282B392B4A2B5B2BEA18D2
:10071000FB080C091D09B695A79597958795EE0CD2
:10072000FF1C001F111F6F5F7F4F6F31710531F785
:10073000DA01C9018F779070A070B0708034910594
:10074000A105B10561F427FD0AC0E114F10401051A
:10075000110529F0205C3F4F4F4F5F4F20782D87C8
:100760003E874F87588BBE01675F7F4FCB010E944A
:10077000A1046896EAE00C94FB13A8E1B0E0E3EC76
:10078000F3E00C94E31369837A838B839C832D833A
:100790003E834F83588789E0E82EF12CEC0EFD1E36
:1007A000CE010196B7010E9476058E010F5E1F4FA4
:1007B000CE010596B8010E9476058985823040F009
:1007C0008989823028F0C701B8010E94EE0501C076
:1007D0008FEF6896E6E00C94FF13A8E1B0E0E3EF3A
:1007E000F3E00C94E31369837A838B839C832D83DA
:1007F0003E834F83588789E0E82EF12CEC0EFD1ED6
:10080000CE010196B7010E9476058E010F5E1F4F43
:10081000CE010596B8010E9476058985823040F0A8
:100820008989823028F0C701B8010E94EE0501C015
:100830008FEF6896E6E00C94FF13A8E1B0E0E3E2E6
:10084000F4E00C94E31369837A838B839C832D8378
:100850003E834F83588789E0E82EF12CEC0EFD1E75
:10086000CE010196B7010E9476058E010F5E1F4FE3
:10087000CE010596B8010E9476058985823040F048
:100880008989823028F0C701B8010E94EE0501C0B5
:1008900081E06896E6E00C94FF13ACE0B0E0E3E59D
:1008A000F4E00C94E71369837A838B839C83CE01F5
:1008B0000196BE016B5F7F4F0E9476058D8182306D
:1008C00061F1823050F1843021F48E81882351F11E
:1008D0002EC02F81388537FD20C06E812F31310524
:1008E0001CF06623F9F023C08EE190E0821B930B8D
:1008F00029853A854B855C8504C056954795379583
:1009000027958A95D2F76623B1F05095409530959A
:1009100021953F4F4F4F5F4F0EC020E030E040E049
:1009200050E009C02FEF3FEF4FEF5FE704C020E03A
:1009300030E040E050E8B901CA012C96E2E00C94A6
:100940000314DF92EF92FF920F931F93FC01E48058
:10095000F58006811781D1808081823048F480E063
:1009600090E0A0E1B0E0E82AF92A0A2B1B2BA5C0F1
:10097000843009F49FC0823021F4EE24FF248701E3
:1009800005C0E114F1040105110519F4E0E0F0E0FF
:1009900096C0628173819FEF623879070CF05BC06B
:1009A00022E83FEF261B370B2A3131052CF020E0DF
:1009B00030E040E050E02AC0B801A701022E04C098
:1009C00076956795579547950A94D2F781E090E020
:1009D000A0E0B0E004C0880F991FAA1FBB1F2A9592
:1009E000D2F70197A109B1098E219F21A023B1233C
:1009F0000097A105B10521F081E090E0A0E0B0E012
:100A00009A01AB01282B392B4A2B5B2BDA01C90148
:100A10008F779070A070B07080349105A105B105FA
:100A200039F427FF09C0205C3F4F4F4F5F4F04C090
:100A3000215C3F4F4F4F5F4FE0E0F0E02030A0E0FF
:100A40003A07A0E04A07A0E45A0710F0E1E0F0E01E
:100A500079018A0127C06038710564F5FB01E1580E
:100A6000FF4FD801C7018F779070A070B0708034AD
:100A70009105A105B10539F4E7FE0DC080E490E0D1
:100A8000A0E0B0E004C08FE390E0A0E0B0E0E80EAA
:100A9000F91E0A1F1B1F17FF05C016950795F7942F
:100AA000E794319687E016950795F794E7948A9531
:100AB000D1F705C0EE24FF248701EFEFF0E06E2FA1
:100AC000679566276795902F9F77D794DD24D794F5
:100AD0008E2F8695492F462B582F5D29B701CA01C5
:100AE0001F910F91FF90EF90DF900895FC01DB01C3
:100AF000408151812281622F6F7770E0221F22276F
:100B0000221F9381892F880F822B282F30E0991F75
:100B10009927991F11969C93119721153105A9F5D5
:100B2000411551056105710511F482E037C082E875
:100B30009FEF13969C938E9312979A01AB0167E0F7
:100B4000220F331F441F551F6A95D1F783E08C9302
:100B50000DC0220F331F441F551F12968D919C917B
:100B60001397019713969C938E931297203080E0F1
:100B7000380780E0480780E4580758F314962D930F
:100B80003D934D935C93179708952F3F310579F46A
:100B9000411551056105710519F484E08C930895A0
:100BA00064FF03C081E08C9312C01C9210C02F57C9
:100BB000304013963C932E93129783E08C9387E0FA
:100BC000440F551F661F771F8A95D1F770641496DE
:100BD0004D935D936D937C93179708951F93DC015C
:100BE000FB019C91923008F447C08081823008F468
:100BF00043C0943051F411961C91843099F5818151
:100C0000682F70E0611B71093FC0843021F0923081
:100C100031F48230B9F18181882389F12DC0119698
:100C20001C9111978230F1F081811817D9F4129636
:100C30002D913C911397828193818217930794F0B1
:100C400028173907BCF014968D919D910D90BC9199
:100C5000A02D2481358146815781281739074A07FD
:100C60005B0718F4112341F00AC082179307A40709
:100C7000B50740F4112319F061E070E005C06FEF93
:100C80007FEF02C060E070E0CB011F910895DF9319
:100C9000CF93CDB7DEB781E06FE043E00E94710CE7
:100CA00081E060E741E00E94710C81E060E741E093
:100CB0000E94980DCF91DF910895DF93CF9300D0DC
:100CC00000D00F92CDB7DEB79D838C831B821A8232
:100CD0001982EC81FD8110821A8257C08A81282FE7
:100CE00030E080E190E002C0880F991F2A95E2F77A
:100CF000982F81E0692F40E00E94980D1B822CC044
:100D00008B81282F30E081E090E002C0880F991F8E
:100D10002A95E2F7982F81E0692F0E94AB0E882375
:100D2000C1F48B81282F30E08A81482F50E0C9011F
:100D3000880F991F820F931F840F951FFC01EE5897
:100D4000FF4F8081EC81FD81808389818F5F898362
:100D500006C08B818F5F8B838B81843088F28A8180
:100D6000282F30E080E190E002C0880F991F2A957B
:100D7000E2F7982F81E0692F41E00E94980D898168
:100D8000882339F48A818F5F8A838A81833008F4CB
:100D9000A5CF0F900F900F900F900F90CF91DF91F4
:100DA0000895DF93CF93CDB7DEB769970FB6F89468
:100DB000DEBF0FBECDBF898F82E061E041E00E94BF
:100DC000980D82E062E040E00E94980D898D982F96
:100DD000917084E061E0492F0E94980D898D86957D
:100DE000982F917084E062E0492F0E94980D898DC0
:100DF00086958695982F917084E064E0492F0E9433
:100E0000980D898D869586958695982F917084E0AA
:100E100068E0492F0E94980D898D82958F70982FD8
:100E2000917084E060E1492F0E94980D898D829530
:100E300086958770982F917084E060E2492F0E9418
:100E4000980D898D8295869586958370982F9170DF
:100E500084E060E4492F0E94980D898D982F991F96
:100E60009927991F84E060E8492F0E94980D82E03D
:100E700064E040E00E94980D80E090E0A8E4B2E4D5
:100E80008D8B9E8BAF8BB88F6D897E898F89988D66
:100E90002BEA3AEA4AE250E40E941702DC01CB0155
:100EA000898B9A8BAB8BBC8B69897A898B899C895E
:100EB00020E030E040E85FE30E941D0488231CF43A
:100EC00081E0888B91C069897A898B899C8920E02F
:100ED00030E04FE753E40E94BD0318160CF07BC0CE
:100EE0006D897E898F89988D20E030E04AE754E44F
:100EF0000E941103DC01CB018C879D87AE87BF87E1
:100F00006C857D858E859F8520E030E04AEF54E436
:100F10000E941702DC01CB0188879987AA87BB87CB
:100F2000688579858A859B8520E030E040E85FE32D
:100F30000E941D0488232CF481E090E09F838E831F
:100F40003FC0688579858A859B8520E03FEF4FE724
:100F500057E40E94BD0318164CF56C857D858E857F
:100F60009F8520E030E040E251E40E941702DC015E
:100F7000CB01BC01CD010E944100DC01CB019F836C
:100F80008E830FC088EC90E09D838C838C819D8143
:100F90000197F1F79D838C838E819F8101979F83B9
:100FA0008E838E819F81009769F724C0688579853B
:100FB0008A859B850E944100DC01CB019F838E8343
:100FC0008E819F819B838A838A819B810197F1F720
:100FD0009B838A830FC069897A898B899C890E9447
:100FE0004100DC01CB01888B8889898389818A95BE
:100FF000F1F7898382E064E041E00E94980D6996F0
:101000000FB6F894DEBF0FBECDBFCF91DF9108952C
:10101000DF93CF93CDB7DEB769970FB6F894DEBFF5
:101020000FBECDBF898F82E061E040E00E94980D45
:1010300082E062E040E00E94980D898D982F9170C7
:1010400084E061E0492F0E94980D898D8695982F44
:10105000917084E062E0492F0E94980D898D8695F9
:101060008695982F917084E064E0492F0E94980D36
:10107000898D869586958695982F917084E068E095
:10108000492F0E94980D898D82958F70982F9170AD
:1010900084E060E1492F0E94980D898D82958695A4
:1010A0008770982F917084E060E2492F0E94980D1C
:1010B000898D8295869586958370982F917084E0AE
:1010C00060E4492F0E94980D898D982F991F9927C8
:1010D000991F84E060E8492F0E94980D82E064E047
:1010E00040E00E94980D80E090E0A8E4B2E48D8B8F
:1010F0009E8BAF8BB88F6D897E898F89988D2BEAF7
:101100003AEA4AE250E40E941702DC01CB01898BE3
:101110009A8BAB8BBC8B69897A898B899C8920E0FF
:1011200030E040E85FE30E941D0488231CF481E066
:10113000888B91C069897A898B899C8920E030E00D
:101140004FE753E40E94BD0318160CF07BC06D8975
:101150007E898F89988D20E030E04AE754E40E9430
:101160001103DC01CB018C879D87AE87BF876C851F
:101170007D858E859F8520E030E04AEF54E40E9413
:101180001702DC01CB0188879987AA87BB8768850E
:1011900079858A859B8520E030E040E85FE30E9406
:1011A0001D0488232CF481E090E09F838E833FC050
:1011B000688579858A859B8520E03FEF4FE757E476
:1011C0000E94BD0318164CF56C857D858E859F8524
:1011D00020E030E040E251E40E941702DC01CB0144
:1011E000BC01CD010E944100DC01CB019F838E83B5
:1011F0000FC088EC90E09D838C838C819D8101974A
:10120000F1F79D838C838E819F8101979F838E83CD
:101210008E819F81009769F724C0688579858A85CA
:101220009B850E944100DC01CB019F838E838E81D0
:101230009F819B838A838A819B810197F1F79B839E
:101240008A830FC069897A898B899C890E944100B1
:10125000DC01CB01888B8889898389818A95F1F7A4
:10126000898382E064E041E00E94980D69960FB6A0
:10127000F894DEBF0FBECDBFCF91DF9108950F93DD
:101280001F93DF93CF93CDB7DEB7C654D0400FB6D0
:10129000F894DEBF0FBECDBF82E067E041E00E9460
:1012A000710C84E06FEF41E00E94710C82E064E019
:1012B00041E00E94980DFE01ED5BFF4F80E090E061
:1012C000A8E4B2E480839183A283B3838E01015C9E
:1012D0001F4FFE01ED5BFF4F608171818281938121
:1012E00020E030E04AEF54E40E941702DC01CB0119
:1012F000F80180839183A283B383FE01FF9660810E
:1013000071818281938120E030E040E85FE30E94B8
:101310001D0488232CF481E090E09EAF8DAF46C081
:10132000FE01FF96608171818281938120E03FEF11
:101330004FE757E40E94BD03181664F5FE01ED5B0C
:10134000FF4F608171818281938120E030E040E233
:1013500051E40E941702DC01CB01BC01CD010E94C7
:101360004100DC01CB019EAF8DAF0FC088EC90E057
:101370009CAF8BAF8BAD9CAD0197F1F79CAF8BAF62
:101380008DAD9EAD01979EAF8DAF8DAD9EAD00979B
:1013900069F716C0FE01FF96608171818281938199
:1013A0000E944100DC01CB019EAF8DAF8DAD9EADA3
:1013B0009AAF89AF89AD9AAD0197F1F79AAF89AF2E
:1013C0008CE30E94080880E090E0A0E8BFE38DABCA
:1013D0009EABAFABB8AF6DA97EA98FA998AD20E049
:1013E00030E04AEF54E40E941702DC01CB0189ABE4
:1013F0009AABABABBCAB69A97AA98BA99CA920E03D
:1014000030E040E85FE30E941D0488232CF481E073
:1014100090E098AB8FA73FC069A97AA98BA99CA936
:1014200020E03FEF4FE757E40E94BD0318164CF54C
:101430006DA97EA98FA998AD20E030E040E251E48B
:101440000E941702DC01CB01BC01CD010E944100CA
:10145000DC01CB0198AB8FA70FC088EC90E09EA772
:101460008DA78DA59EA50197F1F79EA78DA78FA5A6
:1014700098A9019798AB8FA78FA598A9009769F7AE
:1014800014C069A97AA98BA99CA90E944100DC011A
:10149000CB0198AB8FA78FA598A99CA78BA78BA5ED
:1014A0009CA50197F1F79CA78BA78FE00E940808E5
:1014B00080E090E0A0E8BFE38FA398A7A9A7BAA710
:1014C0006FA178A589A59AA520E030E04AEF54E401
:1014D0000E941702DC01CB018BA39CA3ADA3BEA38A
:1014E0006BA17CA18DA19EA120E030E040E85FE3EC
:1014F0000E941D0488232CF481E090E09AA389A324
:101500003FC06BA17CA18DA19EA120E03FEF4FE7E2
:1015100057E40E94BD0318164CF56FA178A589A564
:101520009AA520E030E040E251E40E941702DC017D
:10153000CB01BC01CD010E944100DC01CB019AA38B
:1015400089A30FC088EC90E098A38F8F8F8D98A10E
:101550000197F1F798A38F8F89A19AA101979AA378
:1015600089A389A19AA1009769F714C06BA17CA1F6
:101570008DA19EA10E944100DC01CB019AA389A309
:1015800089A19AA19E8F8D8F8D8D9E8D0197F1F7E8
:101590009E8F8D8F81E00E94080880E090E0A0E09F
:1015A000B0E4898F9A8FAB8FBC8F698D7A8D8B8DCC
:1015B0009C8D20E030E04AEF54E40E941702DC01E9
:1015C000CB018D8B9E8BAF8BB88F6D897E898F8978
:1015D000988D20E030E040E85FE30E941D048823FE
:1015E0002CF481E090E09C8B8B8B3FC06D897E89D1
:1015F0008F89988D20E03FEF4FE757E40E94BD03AD
:1016000018164CF5698D7A8D8B8D9C8D20E030E01D
:1016100040E251E40E941702DC01CB01BC01CD0184
:101620000E944100DC01CB019C8B8B8B0FC088ECAE
:1016300090E09A8B898B89899A890197F1F79A8B27
:10164000898B8B899C8901979C8B8B8B8B899C893F
:10165000009769F714C06D897E898F89988D0E94E3
:101660004100DC01CB019C8B8B8B8B899C89988BF7
:101670008F878F8598890197F1F7988B8F8786E000
:101680000E94080880E090E0A0E8BFE38B879C8779
:10169000AD87BE876B857C858D859E8520E030E09B
:1016A0004AEF54E40E941702DC01CB018F83988734
:1016B000A987BA876F81788589859A8520E030E08F
:1016C00040E85FE30E941D0488232CF481E090E051
:1016D0009E838D833FC06F81788589859A8520E0C0
:1016E0003FEF4FE757E40E94BD0318164CF56B859A
:1016F0007C858D859E8520E030E040E251E40E94AB
:101700001702DC01CB01BC01CD010E944100DC01CC
:10171000CB019E838D830FC088EC90E09C838B83EC
:101720008B819C810197F1F79C838B838D819E81B6
:1017300001979E838D838D819E81009769F714C0E8
:101740006F81788589859A850E944100DC01CB01F3
:101750009E838D838D819E819A83898389819A81DD
:101760000197F1F79A838983CA5BDF4F0FB6F8942C
:10177000DEBF0FBECDBFCF91DF911F910F910895B6
:10178000DF93CF930F92CDB7DEB7898389810E9413
:10179000D10689818823E9F70F90CF91DF910895D1
:1017A000DF93CF9300D0CDB7DEB79A8389830AC089
:1017B000E981FA8180810E94D10689819A8101960E
:1017C0009A838983E981FA818081882389F70F9040
:1017D0000F90CF91DF910895DF93CF9300D000D089
:1017E000CDB7DEB789836A838981282F30E03C83B7
:1017F0002B838B819C81009731F02B813C812130A0
:10180000310531F009C08A8180680E94080804C04F
:101810008A81806C0E9408080F900F900F900F90A3
:10182000CF91DF910895DF93CF93CDB7DEB780E4FA
:101830000E94080880E00E94D1068AE00E94D1063A
:101840008FE10E94D1068FE10E94D1068FE10E94B4
:10185000D10687E00E94D10684E00E94D10680E094
:101860000E94D10680E80E940808CF91DF91089578
:10187000DF93CF93CDB7DEB780E00E94D106CF9142
:10188000DF910895DF93CF93CDB7DEB788E40E9450
:10189000080884E00E94D1068EE00E94D1068EE006
:1018A0000E94D1068EE00E94D1068EE00E94D106F1
:1018B0008FE10E94D10684E00E94D10680E00E9460
:1018C000D10680EC0E940808CF91DF910895DF9344
:1018D000CF93CDB7DEB781E00E94D106CF91DF91E3
:1018E0000895DF93CF93CDB7DEB72D970FB6F89459
:1018F000DEBF0FBECDBF89836A834B838981282FCA
:1019000030E03D872C878C859D858230910509F4D8
:1019100054C02C853D852330310534F48C859D855C
:101920008130910571F0FBC02C853D852330310558
:1019300009F47FC08C859D858430910509F4B5C07C
:10194000EEC08B81282F30E03B872A878A859B85D4
:1019500082309105A1F02A853B8523303105D1F0F5
:101960008A859B858130910509F0D9C0AAE3B0E052
:10197000EAE3F0E090818A81892B8C93D0C0AAE3BE
:10198000B0E0EAE3F0E08081982F8A818095892396
:101990008C93C5C0AAE3B0E0EAE3F0E08081982F21
:1019A0008A81809589238C93ABE3B0E0EBE3F0E090
:1019B00090818A81892B8C93B2C08B81282F30E053
:1019C000398728878885998582309105A1F02885F7
:1019D000398523303105D1F088859985813091058D
:1019E00009F09DC0A7E3B0E0E7E3F0E090818A81D1
:1019F000892B8C9394C0A7E3B0E0E7E3F0E080810B
:101A0000982F8A81809589238C9389C0A7E3B0E0C1
:101A1000E7E3F0E08081982F8A81809589238C9379
:101A2000A8E3B0E0E8E3F0E090818A81892B8C9311
:101A300076C08B81282F30E03F832E838E819F815B
:101A400082309105A1F02E813F8123303105D1F004
:101A50008E819F818130910509F061C0A4E3B0E0DF
:101A6000E4E3F0E090818A81892B8C9358C0A4E351
:101A7000B0E0E4E3F0E08081982F8A8180958923AB
:101A80008C934DC0A4E3B0E0E4E3F0E08081982FB4
:101A90008A81809589238C93A5E3B0E0E5E3F0E0AB
:101AA00090818A81892B8C933AC08B81282F30E0DA
:101AB0003D832C838C819D818230910599F02C810E
:101AC0003D8123303105C9F08C819D8181309105A4
:101AD00031F5A1E3B0E0E1E3F0E090818A81892B68
:101AE0008C931DC0A1E3B0E0E1E3F0E08081982F8A
:101AF0008A81809589238C9312C0A1E3B0E0E1E351
:101B0000F0E08081982F8A81809589238C93A2E3CD
:101B1000B0E0E2E3F0E090818A81892B8C932D96EE
:101B20000FB6F894DEBF0FBECDBFCF91DF91089501
:101B3000DF93CF93CDB7DEB72D970FB6F894DEBF06
:101B40000FBECDBF89836A834B838981282F30E004
:101B50003D872C878C859D8582309105D9F12C8518
:101B60003D852330310534F48C859D858130910588
:101B700071F096C02C853D852330310509F44DC0A8
:101B80008C859D858430910509F469C089C08B815D
:101B9000282F30E03B872A878A859B85009779F03C
:101BA0002A853B852130310509F07AC0ABE3B0E0EE
:101BB000EBE3F0E090818A81892B8C9371C0ABE3D9
:101BC000B0E0EBE3F0E08081982F8A818095892353
:101BD0008C9366C08B81282F30E0398728878885D1
:101BE0009985009779F0288539852130310509F0EC
:101BF00057C0A8E3B0E0E8E3F0E090818A81892B48
:101C00008C934EC0A8E3B0E0E8E3F0E08081982F29
:101C10008A81809589238C9343C08B81282F30E063
:101C20003F832E838E819F81009771F02E813F81AB
:101C300021303105A9F5A5E3B0E0E5E3F0E09081BE
:101C40008A81892B8C932CC0A5E3B0E0E5E3F0E01A
:101C50008081982F8A81809589238C9321C08B81E4
:101C6000282F30E03D832C838C819D81009771F07B
:101C70002C813D812130310599F4A2E3B0E0E2E30B
:101C8000F0E090818A81892B8C930AC0A2E3B0E0B6
:101C9000E2E3F0E08081982F8A81809589238C93FC
:101CA0002D960FB6F894DEBF0FBECDBFCF91DF915A
:101CB0000895DF93CF9300D000D0CDB7DEB78983EE
:101CC0006A838981282F30E03C832B838B819C8120
:101CD00082309105F9F02B813C812330310534F4B9
:101CE0008B819C818130910561F02EC02B813C81DC
:101CF00023303105C1F08B819C8184309105E1F066
:101D000023C0ABE3B0E0EBE3F0E090818A81892B64
:101D10008C931AC0A8E3B0E0E8E3F0E090818A81F8
:101D2000892B8C9311C0A5E3B0E0E5E3F0E090814E
:101D30008A81892B8C9308C0A2E3B0E0E2E3F0E053
:101D400090818A81892B8C930F900F900F900F9028
:101D5000CF91DF910895DF93CF9300D000D00F9201
:101D6000CDB7DEB78A836B8319828A81282F30E052
:101D70003D832C838C819D818230910511F12C81D2
:101D80003D812330310534F48C819D818130910572
:101D900061F03AC02C813D8123303105F1F08C8116
:101DA0009D818430910529F12FC0E9E3F0E0908115
:101DB0008B818923882319F081E0898325C01982CA
:101DC00023C0E6E3F0E090818B818923882319F01A
:101DD00081E0898319C0198217C0E3E3F0E09081A4
:101DE0008B818923882319F081E089830DC01982B2
:101DF0000BC0E0E3F0E090818B818923882319F008
:101E000081E0898301C0198289810F900F900F9022
:101E10000F900F90CF91DF910895DF93CF9300D073
:101E200000D00F92CDB7DEB71A8219821B820E94B2
:101E30005D0F0E943F090E94470680E060E00E941B
:101E4000EC0B80E690E00E94D00B81E060E00E9405
:101E5000EC0BCE0103960E945D068B81282F30E0AB
:101E60003D832C838C819D8183329105D1F02C811F
:101E70003D812A32310529F0ECCFCE0102960E9435
:101E80005D068A818823C9F38A8180530E94690F85
:101E90008A810E94C00B1A82DCCFCE0102960E947A
:101EA0005D068A818823C9F38A8180530E94A0112C
:101EB0008A810E94C00B1A82CCCFDF93CF93CDB71B
:101EC000DEB783E06FE041E00E94710CCF91DF91BB
:101ED0000895DF93CF93CDB7DEB7EA970FB6F894A6
:101EE000DEBF0FBECDBF8AAF19AE19AE1BC283E0F5
:101EF00061E041E00E94980D83E062E040E00E94D2
:101F0000980D83E064E040E00E94980D83E068E073
:101F100040E00E94980D80E090E0A8E4B3E48DAB2F
:101F20009EABAFABB8AF6DA97EA98FA998AD20E0ED
:101F300030E04AEF54E40E941702DC01CB0189AB88
:101F40009AABABABBCAB69A97AA98BA99CA920E0E1
:101F500030E040E85FE30E941D0488232CF481E018
:101F600090E098AB8FA73FC069A97AA98BA99CA9DB
:101F700020E03FEF4FE757E40E94BD0318164CF5F1
:101F80006DA97EA98FA998AD20E030E040E251E430
:101F90000E941702DC01CB01BC01CD010E9441006F
:101FA000DC01CB0198AB8FA70FC088EC90E09EA717
:101FB0008DA78DA59EA50197F1F79EA78DA78FA54B
:101FC00098A9019798AB8FA78FA598A9009769F753
:101FD00014C069A97AA98BA99CA90E944100DC01BF
:101FE000CB0198AB8FA78FA598A99CA78BA78BA592
:101FF0009CA50197F1F79CA78BA783E061E040E0E7
:102000000E94980D83E062E041E00E94980D83E019
:1020100064E040E00E94980D83E068E040E00E94A8
:10202000980D80E090E0A8E4B3E48FA398A7A9A757
:10203000BAA76FA178A589A59AA520E030E04AEF5C
:1020400054E40E941702DC01CB018BA39CA3ADA337
:10205000BEA36BA17CA18DA19EA120E030E040E851
:102060005FE30E941D0488232CF481E090E09AA392
:1020700089A33FC06BA17CA18DA19EA120E03FEF71
:102080004FE757E40E94BD0318164CF56FA178A5E1
:1020900089A59AA520E030E040E251E40E941702B1
:1020A000DC01CB01BC01CD010E944100DC01CB0170
:1020B0009AA389A30FC088EC90E098A38F8F8F8D8F
:1020C00098A10197F1F798A38F8F89A19AA1019701
:1020D0009AA389A389A19AA1009769F714C06BA15B
:1020E0007CA18DA19EA10E944100DC01CB019AA39D
:1020F00089A389A19AA19E8F8D8F8D8D9E8D019729
:10210000F1F79E8F8D8F83E061E040E00E94980D93
:1021100083E062E040E00E94980D83E064E041E0EB
:102120000E94980D83E068E040E00E94980D80E0F6
:1021300090E0A8E4B3E4898F9A8FAB8FBC8F698D50
:102140007A8D8B8D9C8D20E030E04AEF54E40E9424
:102150001702DC01CB018D8B9E8BAF8BB88F6D8905
:102160007E898F89988D20E030E040E85FE30E940F
:102170001D0488232CF481E090E09C8B8B8B3FC066
:102180006D897E898F89988D20E03FEF4FE757E476
:102190000E94BD0318164CF5698D7A8D8B8D9C8D30
:1021A00020E030E040E251E40E941702DC01CB0164
:1021B000BC01CD010E944100DC01CB019C8B8B8BCB
:1021C0000FC088EC90E09A8B898B89899A89019756
:1021D000F1F79A8B898B8B899C8901979C8B8B8BD0
:1021E0008B899C89009769F714C06D897E898F89D6
:1021F000988D0E944100DC01CB019C8B8B8B8B89DD
:102200009C89988B8F878F8598890197F1F7988B98
:102210008F8783E061E040E00E94980D83E062E0F8
:1022200040E00E94980D83E064E040E00E94980D39
:1022300083E068E041E00E94980D80E090E0A8E42F
:10224000B3E48B879C87AD87BE876B857C858D8546
:102250009E8520E030E04AEF54E40E941702DC0142
:10226000CB018F839887A987BA876F817885898505
:102270009A8520E030E040E85FE30E941D04882357
:102280002CF481E090E09E838D833FC06F81788540
:1022900089859A8520E03FEF4FE757E40E94BD0310
:1022A00018164CF56B857C858D859E8520E030E089
:1022B00040E251E40E941702DC01CB01BC01CD01D8
:1022C0000E944100DC01CB019E838D830FC088EC0E
:1022D00090E09C838B838B819C810197F1F79C8399
:1022E0008B838D819E8101979E838D838D819E81BD
:1022F000009769F714C06F81788589859A850E9457
:102300004100DC01CB019E838D838D819E819A8368
:10231000898389819A810197F1F79A83898389ADAD
:102320008F5F89AF99AD8AAD981708F4E0CDEA9632
:102330000FB6F894DEBF0FBECDBFCF91DF910895E9
:10234000DF93CF93CDB7DEB7EA970FB6F894DEBF31
:102350000FBECDBF8AAF19AE19AE1BC283E061E0DC
:1023600040E00E94980D83E062E040E00E94980DFA
:1023700083E064E040E00E94980D83E068E041E083
:102380000E94980D80E090E0A8E4B3E48DAB9EAB92
:10239000AFABB8AF6DA97EA98FA998AD20E030E0B2
:1023A0004AEF54E40E941702DC01CB0189AB9AABDF
:1023B000ABABBCAB69A97AA98BA99CA920E030E0A2
:1023C00040E85FE30E941D0488232CF481E090E044
:1023D00098AB8FA73FC069A97AA98BA99CA920E0D7
:1023E0003FEF4FE757E40E94BD0318164CF56DA967
:1023F0007EA98FA998AD20E030E040E251E40E9430
:102400001702DC01CB01BC01CD010E944100DC01BF
:10241000CB0198AB8FA70FC088EC90E09EA78DA74B
:102420008DA59EA50197F1F79EA78DA78FA598A9C9
:10243000019798AB8FA78FA598A9009769F714C04B
:1024400069A97AA98BA99CA90E944100DC01CB0152
:1024500098AB8FA78FA598A99CA78BA78BA59CA5A8
:102460000197F1F79CA78BA783E061E040E00E9411
:10247000980D83E062E040E00E94980D83E064E004
:1024800041E00E94980D83E068E040E00E94980DD2
:1024900080E090E0A8E4B3E48FA398A7A9A7BAA727
:1024A0006FA178A589A59AA520E030E04AEF54E411
:1024B0000E941702DC01CB018BA39CA3ADA3BEA39A
:1024C0006BA17CA18DA19EA120E030E040E85FE3FC
:1024D0000E941D0488232CF481E090E09AA389A334
:1024E0003FC06BA17CA18DA19EA120E03FEF4FE7F3
:1024F00057E40E94BD0318164CF56FA178A589A575
:102500009AA520E030E040E251E40E941702DC018D
:10251000CB01BC01CD010E944100DC01CB019AA39B
:1025200089A30FC088EC90E098A38F8F8F8D98A11E
:102530000197F1F798A38F8F89A19AA101979AA388
:1025400089A389A19AA1009769F714C06BA17CA106
:102550008DA19EA10E944100DC01CB019AA389A319
:1025600089A19AA19E8F8D8F8D8D9E8D0197F1F7F8
:102570009E8F8D8F83E061E040E00E94980D83E0A4
:1025800062E041E00E94980D83E064E040E00E9438
:10259000980D83E068E040E00E94980D80E090E0B4
:1025A000A8E4B3E4898F9A8FAB8FBC8F698D7A8D45
:1025B0008B8D9C8D20E030E04AEF54E40E9417029E
:1025C000DC01CB018D8B9E8BAF8BB88F6D897E89A3
:1025D0008F89988D20E030E040E85FE30E941D0481
:1025E00088232CF481E090E09C8B8B8B3FC06D891D
:1025F0007E898F89988D20E03FEF4FE757E40E9456
:10260000BD0318164CF5698D7A8D8B8D9C8D20E05D
:1026100030E040E251E40E941702DC01CB01BC0132
:10262000CD010E944100DC01CB019C8B8B8B0FC044
:1026300088EC90E09A8B898B89899A890197F1F7C8
:102640009A8B898B8B899C8901979C8B8B8B8B892F
:102650009C89009769F714C06D897E898F89988D50
:102660000E944100DC01CB019C8B8B8B8B899C8968
:10267000988B8F878F8598890197F1F7988B8F8733
:1026800083E061E041E00E94980D83E062E040E079
:102690000E94980D83E064E040E00E94980D83E082
:1026A00068E040E00E94980D80E090E0A8E4B3E488
:1026B0008B879C87AD87BE876B857C858D859E8546
:1026C00020E030E04AEF54E40E941702DC01CB0125
:1026D0008F839887A987BA876F81788589859A853E
:1026E00020E030E040E85FE30E941D0488232CF4E2
:1026F00081E090E09E838D833FC06F8178858985DE
:102700009A8520E03FEF4FE757E40E94BD0318167B
:102710004CF56B857C858D859E8520E030E040E220
:1027200051E40E941702DC01CB01BC01CD010E94E3
:102730004100DC01CB019E838D830FC088EC90E0CB
:102740009C838B838B819C810197F1F79C838B8386
:102750008D819E8101979E838D838D819E810097BF
:1027600069F714C06F81788589859A850E94410038
:10277000DC01CB019E838D838D819E819A83898329
:1027800089819A810197F1F79A83898389AD8F5F57
:1027900089AF99AD8AAD981708F4E0CDEA960FB6E7
:1027A000F894DEBF0FBECDBFCF91DF9108952F9279
:1027B0003F924F925F926F927F928F929F92AF92D1
:1027C000BF92CF92DF92EF92FF920F931F93CF931E
:1027D000DF93CDB7DEB7CA1BDB0B0FB6F894DEBFB5
:1027E0000FBECDBF09942A88398848885F846E84DB
:1027F0007D848C849B84AA84B984C884DF80EE8025
:10280000FD800C811B81AA81B981CE0FD11D0FB62D
:10281000F894DEBF0FBECDBFED010895F894FFCF51
:10282000454E544552204E554D000000000000001A
:0E28300000003132333435363738392A302340
:00000001FF
